:1000000000800020BD010000810F00004D0F0000A6
:100010004D0F00004D0F00004D0F00004D0F000070
:100020004D0F00004D0F00004D0F0000810F00002C
:10003000810F00004D0F0000810F00003D0F0000F8
:10004000810F0000810F0000810F0000810F000070
:10005000810F0000810F0000810F0000810F000060
:10006000810F0000810F0000810F0000810F000050
:10007000810F0000810F0000810F0000810F000040
:10008000810F0000810F0000810F0000810F000030
:10009000810F0000810F0000810F0000810F000020
:1000A000810F0000810F0000810F0000810F000010
:1000B000810F0000810F0000810F0000810F000000
:1000C000810F0000810F0000810F0000810F0000F0
:1000D000810F0000810F0000810F0000810F0000E0
:1000E000810F0000810F0000810F0000810F0000D0
:1000F000810F000001200000810F0000BD260000DC
:10010000810F0000C9180000810F0000810F00005E
:10011000810F0000810F0000810F0000810F00009F
:10012000810F0000810F0000810F0000810F00008F
:10013000810F0000810F0000810F0000810F00007F
:10014000810F0000810F0000810F0000810F00006F
:10015000810F0000810F0000810F0000810F00005F
:10016000810F0000C1080000810F0000810F000016
:10017000810F0000810F0000810F0000810F00003F
:10018000810F0000810F0000810F0000810F00002F
:10019000810F0000810F0000810F0000810F00001F
:1001A000810F0000810F0000810F0000810F00000F
:1001B000810F0000810F0000810F0000564B4CF2B0
:1001C000205210B51A804DF628121A8000BF00BFC9
:1001D00000F0DAFE514B4FF010621A60504A9A60FC
:1001E000504ADA60A3F53043203B1A6812F480725B
:1001F00004D14D490A604FF4A8521A604B4B1A784B
:10020000110703D51A7842F008021A70484B2A22C7
:100210001A700023474A48499818884204D247492F
:10022000595899500433F5E7454A464B9A424FF0E6
:10023000000302D242F8043BF7E74349434A5958C6
:1002400099500433B3F5DE7FF7D1414B802103F899
:10025000011B40498B42F9D13F4B1A603F4B8A2228
:100260001A70A3F5805324225A70A0221A709A792A
:100270009207FCD59A79D406FCD4394B9A7902F0CE
:100280000C02082AF9D103221A7140225A719A7974
:100290009006FCD5324B9A795106FBD5314A32494A
:1002A00011600221516020221A702D4B9B7903F0BE
:1002B0000C030C2BF9D12D4B2D4A1A602D4B2E4AD5
:1002C0001A6000225A60072243F8042C2B4AC3F814
:1002D0000C2D62B600F07EF9134B1B68DA0705D5CA
:1002E000274800F0D5F8274B274A1A60274B1B7880
:1002F0005B0609D5234C244A2368934204D1204845
:1003000000F0C6F80023236002F002FB00F042FE7A
:1003100000F0A8F8FEE700BF0E2005403080044042
:10032000823F04000100002B14D0034002D007409C
:1003300000E007406087FF1F388CFF1F982D0000EA
:10034000388CFF1F2C8FFF1F000000000082FF1F52
:1003500000E400E05FE400E008ED00E0005006404B
:100360000040064044800440000003010480044033
:10037000C010050014E000E0FF760100000020201E
:1003800000DD68501CE00340A5C3945A00F007400C
:10039000FFFFFFFFFFFFFFFFFFFFFFFFFFFFFFFF6D
:1003A000FFFFFFFFFFFFFFFFFFFFFFFFFFFFFFFF5D
:1003B000FFFFFFFFFFFFFFFFFFFFFFFFFFFFFFFF4D
:1003C000FFFFFFFFFFFFFFFFFFFFFFFFFFFFFFFF3D
:1003D000FFFFFFFFFFFFFFFFFFFFFFFFFFFFFFFF2D
:1003E000FFFFFFFFFFFFFFFFFFFFFFFFFFFFFFFF1D
:1003F000FFFFFFFFFFFFFFFFFFFFFFFFFFFFFFFF0D
:10040000FFFFFFFFFFFFFFFFFFFFFFFFDEF9FFFF23
:1004100010B5054C237833B9044B13B10448AFF33E
:1004200000800123237010BD388CFF1F00000000E6
:10043000982D000008B5064B1BB106480649AFF3DE
:1004400000800648036813B1054B03B1984708BD07
:1004500000000000982D00003C8CFF1F388CFF1F0F
:100460000000000010B500F0F7FD0028FBD000F000
:10047000B1FD04464FF4FA6000F096F803480268B4
:10048000611C1268C9B29047EDE700BF508DFF1F95
:10049000044B054900221A600A60044A10601022C9
:1004A0001A60704714D0034004D0034000D00340CA
:1004B000212810B518D80D4A52F8303093F88042F0
:1004C0003CB1012211B183F8802010BD83F80021D6
:1004D00010BD02EBC00043681A6811B142F003027C
:1004E00001E022F002021A6010BD00BFB82A00002D
:1004F000212810B537D81C4A02EBC00301295B68DC
:10050000144601D004290FD154F83020012082F87C
:1005100080024FF4A2721A601A6804290CBF42F0DC
:10052000200222F020021DE052F83020002082F844
:10053000800211B18A1E012A12D84FF4807202295A
:100540001A6003D11A6842F003020BE003290AD1B2
:100550001A6842F002021A601A6822F0010201E0F1
:1005600040F203121A6010BDB82A000072B60B4B9D
:100570000B491A680B4B1B68096862B6490102D522
:10058000322A88BF0133C2F5BB326021FF32B2FB91
:10059000F1F24FF47A7000FB0320704718E000E09E
:1005A00004ED00E0548CFF1F38B50446FFF7DEFF72
:1005B000054624B938BD013C0AD005F57A75FFF728
:1005C000D5FF401BB0F57A7FF5D200F051FEF6E77B
:1005D00038BDFFFF204B4FF4000210B51A604FF0FA
:1005E00080721A604FF000721A604FF080621A60D9
:1005F0004FF000621A60194B194A1A4C00204BF652
:10060000FF71186059602823136093601361936130
:1006100013629362136393630922226004F580548A
:10062000043420606160A360236144F8042C04F565
:10063000FE2420600C4801600C490B608B600C4B61
:100640001A6000F017F84FF4C870FFF7ADFFBDE86F
:10065000104000F033BC00BF08E100E0048003401C
:100660000C8003400080034008800B400C800B404E
:1006700000800B4010B5204B2048214960221A70A1
:10068000E1225A701F4B204A1C78204B082C01D1C4
:10069000012402E00A2C03D139240460132005E070
:1006A0000C2C0CBF35243D2404601220086014601B
:1006B0001860174B17491B78174A03B101230B60C9
:1006C0001360164B164A1978164B012901D8802160
:1006D0000BE0042901D8842107E0082901D88521ED
:1006E00003E0102994BF86218721116019600E4B09
:1006F00001221A7010BD00BF0040074008B003403F
:100700000CB003406087FF1F08B00B400CB00B40DB
:10071000598CFF1F20B0034020B00B406187FF1FA2
:1007200024B0034024B00B40588CFF1FF0B50C4B95
:100730000C4C1A7842F0020504EBC50682F0010267
:10074000706009481A700678002E0CBF8827C827E9
:1007500086F0010647EA0141067044F83510F0BD05
:10076000C48CFF1F0080FF1F3C8DFF1F431E032B07
:1007700010B510D872B6094A52F8230048B1416842
:1007800042F82310064A018832F81340611A22F811
:10079000131062B610BD002010BD00BFB48CFF1F47
:1007A000188FFF1F013803280AD872B6054B53F87B
:1007B0002030002013B101305B68FBE762B6704760
:1007C00000207047088DFF1F10B572B60123174A2D
:1007D0001A4412F8012C12071CD59900144A52F839
:1007E00031402CB902EB431308305860114B09E03B
:1007F00041F0010152F8314064B902EBC103083005
:1008000058600D4B42F831300C4B1A78013A1A708F
:1008100062B610BD0133052BD9D162B6074B002259
:100820001A70BDE8104001F0D5B800BFB02C000030
:100830000080FF1F88004000C8004000328DFF1F6D
:10084000431E032B30B532D8194A400140F0100046
:10085000104472B6174CE25C032A09D8DFE802F0B4
:10086000160218050830022213E00830042210E0B6
:100870001148124A50F8234014B940F8231002E0FE
:1008800052F82300416042F823100FE0032200E0F9
:100890000522E25410F0080F01F108030A884360B2
:1008A0000CBF8823C82343EA0243036062B630BD0D
:1008B0000080FF1F708CFF1F088DFF1F188DFF1F0A
:1008C0002DE9F84FAB4F3C78E4B214F0040F3D46ED
:1008D00019D0A94B1B78A3B1A84A117801F0FF03E6
:1008E00021B1013BDBB2137003B900BEA44A1178F9
:1008F00001F0FF0329B1013BDBB213700BB900F02B
:1009000073FC04233B7004F0080303F0FF02002B88
:1009100000F067829B4B9C4C1A78D2B215094FEAC3
:10092000920840F0E48104EBC803596854F8383069
:10093000C3F38303013B0C2B00F2D681DFE813F0F5
:1009400095019501D401D401D401D401D401D4017D
:10095000B001D401D401D4010D008C4D0A684B685C
:100960008B486B6001218B4B44F838302A60DFF8EC
:100970005082017092B240F2816000238242C8F836
:1009800000302361A36117D8B2F5D06F80F01E81CB
:10099000B2F5817F00F0CF8006D8802A00F0BA80BF
:1009A000822A00F0BB8031E140F202339A4200F02B
:1009B000D180B2F5A06F1CE042F22100824200F02B
:1009C00051810ED8B2F5086F00F09E80B2F5106F1D
:1009D00040F01C81684B6C4EAA781A7006F18009B1
:1009E0000AE042F221218A4200F0088142F22133DA
:1009F0009A4200F00F8109E1336A1B0603D5706A41
:100A0000083800F0E7FF08364E45F5D10026B1461C
:100A1000DFF8B0A156F80A0028B1D0F804B000F011
:100A2000D9FF5846F8E74AF806005B4BDFF898A173
:100A3000F05056F80A0028B1D0F804B000F0CAFF10
:100A40005846F8E7554B4AF80600F050544B23F847
:100A50001900544B19F80320023A032A08D8DFE89A
:100A600002F002040204002200E0012203F809203F
:100A700009F10109B9F1040F06F10406C8D14A4B86
:100A800000221A7001269A46484A494B32443344A0
:100A900012F8012C9B0012F0080F1A704FEA860919
:100AA00025D000F079FF38B104EB461308305860C8
:100AB000404B44F8393006E09AF8003044F83900E9
:100AC00001338AF8003000F067FF49F0010338B1C4
:100AD00004EBC302083050602E4A44F8332006E08D
:100AE00044F833009AF8003001338AF8003049F0B6
:100AF0000202013649F003090023052E44F8323082
:100B000044F83930C0D186E01B4B2B4C1B78237046
:100B10000B4683E0284C237063707EE0AA88042A89
:100B200074D8254C920023706370244B9B5C9E0705
:100B300073D5217071E0AA8802F07F02042A65DC77
:100B40006B88002B62D191001C4A0A44117821F075
:100B5000020159E0AA8802F07F02042A56DC6B8861
:100B6000002B53D19100154A0A44117841F002013B
:100B70004AE000BF802007403B8DFF1FC58CFF1F50
:100B80003D8DFF1F902007400080FF1F288DFF1F15
:100B90003C8DFF1FC8004000608CFF1F188DFF1F99
:100BA000188FFF1F708CFF1F328DFF1FB02C0000AD
:100BB00030C8011088004000338DFF1FC02007405F
:100BC0005C8CFF1FB48CFF1F088DFF1F6A88A988EB
:100BD0009F4B53F8084CA3F10C00BCB133F80C6CDC
:100BE000964209D133F80A6C8E4205D1120A032AC3
:100BF0000CBF2378038911E00C33EAE7954A1168AA
:100C0000954A1160A978954A117004E0944B0F221F
:100C10001A7027E000231C4600E00223EE88B3424E
:100C200038BF1E46402E34BF354640252046294653
:100C3000FFF77CFD761B2C4403D1402D12D13546A5
:100C400003E0402E34BF3546402520462946FFF7B5
:100C50006DFD761B2C4401D1402D03D1814AC8F88B
:100C6000004016800122804B3DE0804B1A8842F202
:100C700021039A4210D100237D4AC85C9854013365
:100C8000072BF9D11368862B02D17A4B0F221A70E9
:100C900000200146FFF74AFD774B44F8383023E047
:100CA000764E3568B5B1DFF8BC81B8F80090B9F17F
:100CB000400F34BF4C46402428462146FFF736FDFE
:100CC000C4EB09039BB2A8F800300BB9402C00D14B
:100CD0002B193360654B1A88B2F5A06F04D100223E
:100CE0005A709A78664B1A7001225F4B6CE004EBE5
:100CF000C806013D736802F00802A3F10800EDB2D6
:100D000002F0FF01002A36D000F064FE5D485E4B21
:100D100050F82520EAB1516840F8251002F1080189
:100D20007160595D03290BD8DFE801F00204060861
:100D3000032104E0022102E0052100E004215955CD
:100D400016F0080F12880CBF8823C82343EA024319
:100D500042E05A5D032A07D8DFE802F0404002046F
:100D6000002206E0012204E016F0080F0CBF022268
:100D700003225A5532E054F83820120C23F8082C7C
:100D800022B3DFF834E123F8061C43F8041C5EF8B4
:100D900025303E4913B94EF8250002E051F82530C0
:100DA00058603B4B41F8250033F815100A4423F8EE
:100DB000152000F0F1FD10B10830706006E0354BF1
:100DC00044F838001A7801321A7007E02A4B324A88
:100DD00016F0080F08BF134644F8383008233B705C
:100DE00070E5E0071FD520492B482C4C02230B70DF
:100DF0002B4B1A702B4B186098602B48D8601A61E7
:100E00009A615C60164B0D2018702848FF23037010
:100E10002B700274264A1370264B9F221A700123EE
:100E20000B70BDE8F88F210604D50D4B0D221A700A
:100E300080232B70A20705D51C4B1A78D2B21A70EA
:100E400002232B70E30644BF10232B70BDE8F88FFC
:100E5000C02C0000548CFF1F288FFF1F4C8DFF1FDC
:100E6000C0200740308DFF1F94200740288DFF1FB2
:100E7000208FFF1FC58CFF1FC80040005C8CFF1F28
:100E800098200740088DFF1F708CFF1F608CFF1F8C
:100E9000188FFF1F328DFF1F88004000748CFF1FCA
:100EA000C48CFF1F0080FF1FC88CFF1F88200740D5
:100EB0008C20074084200740B48CFF1F08B500F049
:100EC000ABFD00221A4B0021D15098180832882A15
:100ED0004160F7D1174A106840F48020106002F595
:100EE00028326832C3F307201070C3F307401B0E8B
:100EF00010751376FF2302F81C3C02F8143C02F82C
:100F00008C3C012302F8083C82F8641002F8183C7B
:100F1000094B70226FF450711A700B444FF4007239
:100F20001A6003F1C04303F5C82310221A7008BDEC
:100F30000080FF1F3480044049E400E0024B1A683F
:100F400001321A60704700BF548CFF1F08B50B4C6C
:100F50002368580301D5FFF7B3FC2368590501D571
:100F600001F04EF823681A0501D501F0A7FB2368AC
:100F7000DB04ECD500F0A8FCE9E700BF34800440B6
:100F800008B5FFF7E3FFFFFF014B10221A807047FF
:100F9000002005407047FFFFEFF313839BB9EFF389
:100FA000108098B9EFF3058323B10F2B04D9084AB9
:100FB000985C01E04FF48070EFF311833BB1834202
:100FC00038BF184670474FF0FF30704718467047DB
:100FD000F0E300E010B5104C23686BB12068428844
:100FE000531C0244147A0288934212D300F0F2FC9C
:100FF000094B00221A600DE0084B1B7813B94FF023
:10100000FF3010BD0320FFF7B1FB20600028E5D1C1
:10101000F5E74380204610BD488DFF1F3B8DFF1F25
:1010200010B50B4C236813B123686BB902E0094B70
:101030001B7813B94FF0FF3010BD0320FFF796FB6C
:1010400020600028F0D1F5E75A881344187A10BDC3
:10105000488DFF1F3B8DFF1F044B9888044B1B6876
:101060001BB11A885B88D31A18447047188FFF1F6A
:10107000488DFF1F10B5094B1B786BB1084C2068D9
:1010800018B100F0A7FC002323600320FFF76EFBDC
:1010900010B100F09FFCF8E710BD00BF3B8DFF1FB3
:1010A000488DFF1F2DE9F8432D4E012307460C46BE
:1010B0003370002C4FD02B4D2B68A9462BBB4AF226
:1010C000F928294B1B7803F0FF020BB9327015E0A9
:1010D0000420FFF767FB072808D80123337000F0CE
:1010E0005BFCC9F8000080B91D4B1870B8F101080D
:1010F0001E4B01D01A782AB101221A704FF0FF302E
:10110000BDE8F88300F0B4F8DBE72968174A48889F
:1011100000231370C0F14002944238BF224600F110
:10112000080C10448C444880A41A934204D0F85C04
:101130000CF803000133F8E71F444B883F2B06D916
:1011400040230B800420FFF77BFB00232B60084B20
:1011500005221A70ADE734702046BDE8F88300BF61
:101160003E8DFF1F408DFF1F3B8DFF1F448DFF1FD6
:101170003D8DFF1F07B502AB012103F8010D184695
:10118000FFF790FF03B05DF804FBFFFF2DE9F0418E
:10119000114B1B78F3B1114E114B3468114D0127DF
:1011A0001F7098464CB1002763882F70042023805D
:1011B0002146FFF745FB376009E000F0EDFB0146F3
:1011C00020B104202C70FFF73BFB00E02F700023C0
:1011D00088F80030BDE8F0813B8DFF1F408DFF1F78
:1011E0003E8DFF1F3D8DFF1F38B50E4B1B7803F062
:1011F000FF05ABB90C4C216831B14B880B80042042
:10120000FFF71EFB256038BD00F0C6FB014620B18C
:101210000420BDE83840FFF713BB044B01221A70CD
:1012200038BD00BF3E8DFF1F408DFF1F3D8DFF1F4E
:10123000FFF712BFFFF7CEBEFFF7F2BEFFF7A6BF64
:10124000FFF718BF0846FFF795BF08461146FFF79E
:1012500029BF7047044B00221A714FF47A711A7338
:10126000024A99601A607047508DFF1FD02B000012
:1012700010B50E4C2378BBB901232370FFF7ECFEA9
:1012800008B1FFF7E6FF00F045FE08B100F089F86D
:1012900001F09EF908B100F00CF900F0B1FA08B1C4
:1012A00001F009FB0023237010BD00BF608DFF1FFC
:1012B00008B50368C9B21B68984708BD08B503683C
:1012C000C9B21B68984708BD08B50368C9B21B6856
:1012D000984708BD08B50368C9B21B68984708BDA0
:1012E0004B0803F1376000F5D830B0FBF1F000F0A7
:1012F000CBBB10B54B0803F1376000F5D83014466E
:10130000B0FBF1F000F0C0FB2046BDE8104000F05B
:101310001FBC00F047BC084600F078BC084600F04F
:10132000C7BC0846114600F08DBC08B5084600F061
:10133000E5FC003018BF012008BD08B5084600F0E4
:10134000FFFC003018BF012008BD00F0E3BD00F035
:101350001BBE00F0EFBD00F0C1BD00F02DBE00F0DF
:10136000C7BD08B5084600F011FD012008BD08B54D
:10137000084600F00BFD012008BD10B508461446D4
:10138000114600F04DFD204610BD38B508460D460B
:1013900001F0E6FA04462146284600F041FD2046C9
:1013A00038BD7047044B00221A714FF47A711A73DA
:1013B000024A99601A607047648DFF1FF82B000085
:1013C00008B50368C9B21B68984708BD08B503682B
:1013D000C9B21B68984708BD08B50368C9B21B6845
:1013E000984708BD08B50368C9B21B68984708BD8F
:1013F0004B0803F1376000F5D830B0FBF1F000F096
:1014000083BE10B54B0803F1376000F5D8301446A1
:10141000B0FBF1F000F078FE2046BDE8104000F08F
:10142000D7BE00F0FFBE084600F054BF084600F0EB
:10143000A3BF0846114600F069BF08B5084600F092
:10144000C3FF003018BF012008BD08B5084600F0F2
:10145000DDFF003018BF012008BD01F0B9B801F070
:10146000F1B801F0C5B801F097B801F003B901F087
:101470009DB808B5084600F0E7FF012008BD08B593
:10148000084600F0E1FF012008BD10B508461446EB
:10149000114601F023F8204610BD38B508460D4628
:1014A00001F05EFA04462146284601F017F820466E
:1014B00038BD7047044B00221A714FF47A711A73C9
:1014C000024A99601A607047748DFF1F582C000003
:1014D000174B1A6842F480521A60164A00231370A0
:1014E000154A1370154A1370154A1370154A137074
:1014F000154A40F2133111604FF451715160134A93
:10150000C0F344311170C0F3471100F01F00517057
:101510009072937013742C23D3700D4B40226FF490
:101520004B711A700B444FF400321A60704700BFC1
:1015300034800440F28DFF1F898DFF1FF88DFF1F3F
:10154000F38DFF1F888DFF1F08C0044000C00640B8
:1015500031E400E0134A937800F0030103F0EC0358
:101560000B43410748BF43F01003937000F00F0393
:10157000042B0C4903D18B7943F040038B715379D1
:10158000C20603F0EF03074A48BF43F0100353714C
:101590009379810603F0EF0348BF43F01003937182
:1015A000704700BF00C0064008B5114B1B68DB0444
:1015B00000D408BD0F4B1A7802F0FF0312B1FFF7F9
:1015C00057FEF7E70C4A4FF4003111600B4A0C4903
:1015D000D37040F203120A604A600A4A13700A4A42
:1015E00013700A4B1B680BB101221A7008BD00BFB3
:1015F00034800440888DFF1F84E100E000C0064075
:1016000008C00440F28DFF1F898DFF1F848DFF1FCE
:1016100038B50446094B1B7803F0FF05002BF9D1C0
:1016200020460121FEF764FF20462946FEF740FFD1
:10163000034B53F83420034B1A6038BD888DFF1FCD
:10164000B82A0000F48DFF1F10B509B140F08000EA
:101650000E4A1378984217D00D4C2468E40412D532
:1016600003F07F03082B02D10A4B00241C600029E1
:1016700000F07F030CBF44216021082B03D1054BF0
:1016800041F440711960107010BD00BF6287FF1FE8
:10169000348004400CC004407047FFFF0D4A38B549
:1016A000146814F480524FF0000410D021280A4D21
:1016B0000AD80A4A012152F830302B60FEF718FF91
:1016C0002B681C70012038BD2C60204638BD1046A8
:1016D00038BD00BF34800440848DFF1FB82A00004D
:1016E0000B4B1B6813F4805310D00E28094B09D103
:1016F000094A40F2023111605A7B42F001025A73EA
:10170000012070475A7B02F0FE025A730020704796
:101710003480044000C0064004C00440F8B51D4BAE
:101720001B68DA04064633D51B4B1B680BB101223C
:101730001A701A4B1C780134282C1F4628BF00242D
:10174000174D2B78A34218D1FFF726FC40280FDC59
:10175000144A13791B06F3D52B7813490133282B30
:1017600028BF0023C95CDBB2C9B2D1712B70E7E797
:10177000FF28E5DDFFF77CFDE2E70B4BF6B21E55D7
:101780000A4B01221A70074BE4B2AC223C70DA70AB
:10179000F8BD00BF34800440F48DFF1FF88DFF1F9B
:1017A000F38DFF1F00C006408A8DFF1F888DFF1F2D
:1017B00038B504464518AC4204D014F8010BFFF7C5
:1017C000ADFFF8E738BDFFFF08B5034B1B7813B139
:1017D000FFF74EFDF9E708BD888DFF1F064A074B4E
:1017E0001B781078DBB2C0B283422CBF273000F1E7
:1017F000FF30C01A704700BFF38DFF1FF88DFF1F29
:10180000054B1878054B1B78C0B2DBB2984238BF45
:101810004030C01A704700BFF28DFF1F898DFF1F37
:1018200010B5104B10491A780B78D2B2DBB29A423D
:1018300014D00133402B28BF00230C48DCB2C05C1D
:101840000C700B490968C0B251B19A4238BF40329E
:10185000D31A1A2B04DC00230B7010BD4FF0FF309D
:1018600010BD00BFF28DFF1F898DFF1FB28DFF1FBE
:10187000848DFF1F084B1A78084B1B78DBB29A4205
:1018800007D00133402B28BF0023054AD05CC0B2EB
:1018900070474FF0FF307047F28DFF1F898DFF1F9B
:1018A000B28DFF1F054B1A78054BD2B21A70054B4B
:1018B0001B680BB100221A70704700BF898DFF1F93
:1018C000F28DFF1F848DFF1F10B5294B1A799206E8
:1018D00020D5284AD879137827490133402B097835
:1018E00028BF00238B42C0B203D02449C854D9B2C8
:1018F0001170234A116869B1224A1278D2B2934218
:1019000036BFC2F14002C2EB03039B18272BC4BFB2
:1019100001230B70164AD178C9B20C0616D513797B
:10192000180613D5184B17481C780378DBB29C4275
:1019300002D16C23D37009E00133282B28BF002388
:10194000124CE45CDBB2E4B2D47103704B060ED5EA
:10195000074B1A7912F0400F194608D00C4B0022A1
:101960001A700C4B1B6803B11A702C23CB7010BD7E
:1019700000C00640F28DFF1F898DFF1FB28DFF1F33
:10198000848DFF1FF38DFF1FF88DFF1F8A8DFF1FB2
:10199000888DFF1FF48DFF1F72B60C4A1168B1FAD3
:1019A00081F30B2B02D962B6002070474FF0004044
:1019B000D84021EA0001116062B60549482253432C
:1019C000C8180022CA504260704700BF6487FF1FDA
:1019D0000084FF1F0C4B4822C31AB3FBF2F30B2BFE
:1019E00011D80A4A127822B1094A12780AB1FEF7D0
:1019F000EBBE72B6074A4FF0004121FA03F31168BB
:101A00001943116062B670470084FF1F328DFF1FBB
:101A10003B8DFF1F6487FF1F1FB572B6154B7022E9
:101A20001A70154A412111700F2102F8011C802201
:101A30001A701A781206FCD5104B186862B6104B53
:101A4000984298BF0A2301AC98BF584321460A2206
:101A500000F040FF0023E15C0A4A29B102EB430099
:101A600001330A2B4180F6D101335B00137004B0BF
:101A700010BD00BF00000240070002400800024005
:101A80007F969800F087FF1F234B1A6842F480620C
:101A90001A60224A00231370214A1370214A1370DE
:101AA000214A1370214A1370214B1B782BB1152B3F
:101AB00007D140F213321F4B02E01F4B40F21332AA
:101AC0001A601E4B1B78012B05D0052B07D14FF454
:101AD00051721B4B02E01B4B4FF451721A601A4BB0
:101AE000C0F344321A70C0F347125A700221042224
:101AF00000F01F0098729A70D9745A7588221A746F
:101B00003C22DA70114B40226FF44A711A700B4478
:101B10004FF400521A60704734800440838EFF1FD8
:101B2000018EFF1F8C8EFF1F848EFF1F008EFF1FF4
:101B3000428EFF1F18C0044040A004400688FF1FCB
:101B40001CC0044044A0044000A006402DE400E076
:101B5000134A937800F0030103F0EC030B434107B1
:101B600048BF43F01003937000F00F03042B0C499F
:101B700003D18B7943F040038B715379C20603F094
:101B8000EF03074A48BF43F010035371937981066E
:101B900003F0EF0348BF43F010039371704700BF99
:101BA00000A0064008B5114B1B685B0500D408BDBA
:101BB0000F4B1A7802F0FF0312B1FFF759FBF7E75A
:101BC0000C4A4FF4005111600B4A0C49D37040F29B
:101BD00003120A604A600A4A13700A4A13700A4BD9
:101BE0001B680BB101221A7008BD00BF348004408D
:101BF000008EFF1F84E100E000A0064040A00440EA
:101C0000838EFF1F018EFF1FFC8DFF1F38B504461A
:101C1000094B1B7803F0FF05002BF9D12046012169
:101C2000FEF766FC20462946FEF742FC034B53F8BC
:101C30003420034B1A6038BD008EFF1FB82A000005
:101C4000888EFF1F10B509B140F08000144A137848
:101C50009842144622D0134A126852051DD503F04B
:101C60007F03012B04D0052B05D100220E4B01E090
:101C70000E4B00221A60002900F07F020CBF4423A3
:101C80006023012A05D0052A07D143F44073064A90
:101C900002E0064A43F440731360207010BD00BF99
:101CA0000688FF1F348004401CC0044044A0044048
:101CB0000E4A1378984218D00D490968490513D582
:101CC0002BB1152B05D10B4B0021196001E00A49FE
:101CD0000B6028B1152807D140F21331054B02E003
:101CE000054B40F21331196010707047428EFF1F90
:101CF0003480044018C0044040A004400D4A38B568
:101D0000146814F480624FF0000410D021280A4DAA
:101D10000AD80A4A012152F830302B60FEF7E8FB5E
:101D20002B681C70012038BD2C60204638BD104641
:101D300038BD00BF34800440FC8DFF1FB82A00006E
:101D40000E4B1B6813F4806316D012280C4B03D182
:101D500040F202310B4A04E0142809D10A4A40F249
:101D6000023111605A7B42F001025A730120704720
:101D70005A7B02F0FE025A73002070473480044000
:101D800000A006400CA0044014C00440F8B51D4B50
:101D90001B685A05064633D51B4B1B680BB1012245
:101DA0001A701A4B1C780134402C1F4628BF00249F
:101DB000174D2B78A34218D1FFF7EEF840280FDC1F
:101DC000144A13791B06F3D52B7813490133402BA2
:101DD00028BF0023C95CDBB2C9B2D1712B70E7E721
:101DE000FF28E5DDFFF744FAE2E70B4BF6B21E559C
:101DF0000A4B01221A70074BE4B2BC223C70DA7025
:101E0000F8BD00BF34800440888EFF1F8C8EFF1FFA
:101E1000848EFF1F00A00640028EFF1F008EFF1F52
:101E2000274B1B685A052DE9F04707468A4644D5DB
:101E3000244B1B680BB101221A703D4607EB0A03C5
:101E40009D4237D2DFF890801F4E98F8004096F8F8
:101E500000900134402C28BF00245FFA89F9A14585
:101E60001DD11A4BBC22DA70FFF796F840280FDC20
:101E7000164A13791B060FD5337815490133402BC9
:101E800028BF0023C95CDBB2C9B2D171337003E053
:101E9000FF2801DDFFF7ECF933784B45E4D00C4B1C
:101EA00015F8012B1A550B4B0122E4B21A7088F871
:101EB0000040C3E7054BBC22DA70BDE8F08700BFE5
:101EC00034800440888EFF1F848EFF1F00A00640D0
:101ED000028EFF1F008EFF1F8C8EFF1F08B5034B65
:101EE0001B7813B1FFF7C4F9F9E708BD008EFF1F97
:101EF000064A074B1B781078DBB2C0B283422CBF76
:101F00003F3000F1FF30C01A704700BF848EFF1FC2
:101F10008C8EFF1F054B1878054B1B78C0B2DBB2C7
:101F2000984238BF4030C01A704700BF838EFF1FF1
:101F3000018EFF1F10B5104B10491A780B78D2B2E2
:101F4000DBB29A4214D00133402B28BF00230C4847
:101F5000DCB2C05C0C700B490968C0B251B19A4246
:101F600038BF4032D31A1A2B04DC00230B7010BD8B
:101F70004FF0FF3010BD00BF838EFF1F018EFF1F8B
:101F8000438EFF1FFC8DFF1F084B1A78084B1B78F0
:101F9000DBB29A4207D00133402B28BF0023054A09
:101FA000D05CC0B270474FF0FF307047838EFF1F88
:101FB000018EFF1F438EFF1F0C4B1B685B0514D562
:101FC0000B4BDA7802F0CB02DA7040225A74DA78DE
:101FD00042F03402DA70074B1A78074BD2B21A700B
:101FE000064B1B680BB100221A7070473480044006
:101FF00000A00640018EFF1F838EFF1FFC8DFF1F78
:1020000030B5374B1A7912F0300F31D072B69A7D55
:1020100002F0FF0022B9DA7940225A7462B627E052
:1020200062B6304A304913780978DBB2C9B2144637
:102030002B4AD5795A1C402A28BF00228A42EDB289
:1020400002D02A4B9D541346421E12F0FF00EFD1DE
:10205000DAB22270264A126852B18B4236BFC1F101
:102060004001C1EB03035B18272BC4BF012313708E
:102070001B4BD978C9B20C0620D51B7918061DD583
:102080001C4B1D4A1D781378EDB2DBB21046AB42F3
:102090000CD0134A0133402B1479184C28BF00236D
:1020A000E45CE4B2D471127D072AF0D9DBB203708C
:1020B0000B4B1A79120644BF7C22DA704B060ED500
:1020C000074B1A7912F0400F194608D00C4B00222A
:1020D0001A700C4B1B6803B11A703C23CB7030BDD7
:1020E00000A00640838EFF1F018EFF1F438EFF1F3F
:1020F000FC8DFF1F8C8EFF1F848EFF1F028EFF1F23
:10210000008EFF1F888EFF1F234B1A6842F4006267
:102110001A60224A00231370214A1370214A137057
:10212000214A1370214A1370214B1B78092B05D0CB
:102130001A2B07D140F213321E4B02E01E4B40F225
:1021400013321A601D4B1B780A2B05D01F2B07D1A9
:102150004FF451721A4B02E01A4B4FF451721A604D
:10216000194BC0F344321A70C0F347125A7000F092
:102170001F000422022198729A70D9745A7588221D
:102180001A743C22DA70114B40221A70A3F22B33DE
:102190004FF400421A60704734800440FE8EFF1FE7
:1021A000958EFF1F048FFF1FFF8EFF1F948EFF1F52
:1021B0000788FF1F04D004400CB004400888FF1FAC
:1021C00000D0044010B0044000B006402FE400E00E
:1021D000134A937800F0030103F0EC030B4341072B
:1021E00048BF43F01003937000F00F03042B0C4919
:1021F00003D18B7943F040038B715379C20603F00E
:10220000EF03074A48BF43F01003537193798106E7
:1022100003F0EF0348BF43F010039371704700BF12
:1022200000B0064008B51E4B1B681B0500D408BD56
:102230001C4B1B7803F0FF0213B1FFF719F8F7E707
:10224000194B4FF400411960184BDA70184B1B788A
:10225000092B05D01A2B07D140F20312154B02E0CF
:10226000154B40F203121A60144B1B7803F07F03E6
:102270000A2B05D01F2B07D140F20312104B02E0AE
:10228000104B40F203121A600F4A002313700F4ADA
:1022900013700F4B1B680BB101221A7008BD00BFF1
:1022A00034800440948EFF1F84E100E000B00640BB
:1022B0000788FF1F04D004400CB004400888FF1FAB
:1022C00000D0044010B00440FE8EFF1F958EFF1F0B
:1022D000908EFF1F38B50446094B1B7803F0FF05AD
:1022E000002BF9D120460121FEF702F920462946AC
:1022F000FEF7DEF8034B53F83420034B1A6038BD69
:10230000948EFF1FB82A0000008FFF1F10B509B17F
:1023100040F08000144A13789842144622D0134AA1
:10232000126812051DD503F07F030A2B04D01F2B62
:1023300005D100220E4B01E00E4B00221A6000294D
:1023400000F07F020CBF442360230A2A05D01F2A15
:1023500007D143F44073064A02E0064A43F440734F
:102360001360207010BD00BF0888FF1F3480044038
:1023700000D0044010B004400F4A137898421AD09D
:102380000E490968090515D5092B04D01A2B05D16A
:1023900000210B4B01E00B4B00211960092805D0EF
:1023A0001A2807D140F21331054B02E0054B40F2E9
:1023B00013311960107070470788FF1F3480044084
:1023C00004D004400CB004400D4A38B5146814F42D
:1023D00000624FF0000410D021280A4D0AD80A4AA2
:1023E000012152F830302B60FEF782F82B681C7008
:1023F000012038BD2C60204638BD104638BD00BFD6
:1024000034800440908EFF1FB82A00000B4B1B68DD
:1024100013F4006310D01728094B09D1094A40F280
:10242000023111605A7B42F001025A730120704759
:102430005A7B02F0FE025A73002070473480044039
:1024400000B0064008B00440F8B51D4B1B681A05E3
:10245000064633D51B4B1B680BB101221A701A4B71
:102460001C780134282C1F4628BF0024174D2B78D8
:10247000A34218D1FEF790FD40280FDC144A1379CF
:102480001B06F3D52B7813490133282B28BF0023D3
:10249000C95CDBB2C9B2D1712B70E7E7FF28E5DD7B
:1024A000FEF7E6FEE2E70B4BF6B21E550A4B0122A1
:1024B0001A70074BE4B2BC223C70DA70F8BD00BF62
:1024C00034800440008FFF1F048FFF1FFF8EFF1F0B
:1024D00000B00640968EFF1F948EFF1F274B1B688F
:1024E0001A052DE9F04707468A4644D5244B1B6858
:1024F0000BB101221A703D4607EB0A039D4237D209
:10250000DFF890801F4E98F8004096F80090013454
:10251000282C28BF00245FFA89F9A1451DD11A4B48
:10252000BC22DA70FEF738FD40280FDC164A13791A
:102530001B060FD5337815490133282B28BF0023FC
:10254000C95CDBB2C9B2D171337003E0FF2801DD91
:10255000FEF78EFE33784B45E4D00C4B15F8012B7B
:102560001A550B4B0122E4B21A7088F80040C3E7F9
:10257000054BBC22DA70BDE8F08700BF3480044010
:10258000008FFF1FFF8EFF1F00B00640968EFF1FBB
:10259000948EFF1F048FFF1F08B5034B1B7813B1E8
:1025A000FEF766FEF9E708BD948EFF1F064A074B4B
:1025B0001B781078DBB2C0B283422CBF273000F109
:1025C000FF30C01A704700BFFF8EFF1F048FFF1F30
:1025D000054B1878054B1B78C0B2DBB2984238BF68
:1025E0004030C01A704700BFFE8EFF1F958EFF1F40
:1025F00010B5104B10491A780B78D2B2DBB29A4260
:1026000014D00133402B28BF00230C48DCB2C05C3F
:102610000C700B490968C0B251B19A4238BF4032C0
:10262000D31A1A2B04DC00230B7010BD4FF0FF30BF
:1026300010BD00BFFE8EFF1F958EFF1FBE8EFF1FB9
:10264000908EFF1F084B1A78084B1B78DBB29A421A
:1026500007D00133402B28BF0023054AD05CC0B20D
:1026600070474FF0FF307047FE8EFF1F958EFF1FA3
:10267000BE8EFF1F0C4B1B681B0514D50B4BDA7865
:1026800002F0CB02DA7040225A74DA7842F0340257
:10269000DA70074B1A78074BD2B21A70064B1B68D8
:1026A0000BB100221A7070473480044000B006401D
:1026B000958EFF1FFE8EFF1F908EFF1F30B5374B8C
:1026C0001A7912F0300F31D072B69A7D02F0FF0005
:1026D00022B9DA7940225A7462B627E062B6304AEB
:1026E000304913780978DBB2C9B214462B4AD57940
:1026F0005A1C402A28BF00228A42EDB202D02A4B3F
:102700009D541346421E12F0FF00EFD1DAB2227040
:10271000264A126852B18B4236BFC1F14001C1EB6B
:1027200003035B18272BC4BF012313701B4BD978FD
:10273000C9B20C0620D51B7918061DD51C4B1D4AA5
:102740001D781378EDB2DBB21046AB420CD0134AC1
:102750000133282B1479184C28BF0023E45CE4B221
:10276000D471127D072AF0D9DBB203700B4B1A79B2
:10277000120644BF7C22DA704B060ED5074B1A793D
:1027800012F0400F194608D00C4B00221A700C4B67
:102790001B6803B11A703C23CB7030BD00B00640FB
:1027A000FE8EFF1F958EFF1FBE8EFF1F908EFF1F98
:1027B000048FFF1FFF8EFF1F968EFF1F948EFF1F3B
:1027C000008FFF1F08B50368C9B21B68984708BD92
:1027D00008B50368C9B21B68984708BD08B5036807
:1027E000C9B21B68984708BD08B50368C9B21B6821
:1027F000984708BD4B0803F1B76000F55840B0FB9F
:10280000F1F0FEF765BE10B54B0803F1B76000F5B7
:1028100058401446B0FBF1F0FEF75AFE2046BDE8E2
:102820001040FEF797BEFEF7BFBE0846FEF7F0BEAB
:102830000846FEF731BF08461146FEF705BF08B54A
:102840000846FEF72BFF003018BF012008BD08B571
:102850000846FEF745FF003018BF012008BDFEF70F
:10286000CFBFFFF707B8FEF7DBBFFEF7ADBFFFF73F
:1028700019B8FEF7B3BF08B50846FEF74FFF0120B1
:1028800008BD08B50846FEF749FF012008BD10B590
:10289000084614461146FEF78BFF204610BD38B59A
:1028A00008460D4600F05CF8044621462846FEF72F
:1028B0007FFF204638BD7047044B00221A714FF449
:1028C0007A711A73024A99601A607047088FFF1F65
:1028D000102D000010B50023B0FBF2F402FB140031
:1028E000092894BF30303730C0B2C85420460CB1EC
:1028F0000133F1E7CA18547022469A4206DA885C1E
:10290000CC5C8C54C8540132013BF6E7084610BD3C
:1029100070B50F4E0F4D761BB61007D0043D002446
:10292000013455F8043F9847A642F9D10A4E0B4DA1
:10293000761B00F01DFAB61008D0043D00240134C7
:1029400055F8043F9847A642F9D170BD70BD00BF4D
:102950007C2D00007C2D0000942D00007C2D0000BB
:1029600020F0030110F00300C0F1000051F8043B17
:1029700000F1040C4FEACC0C6FF000021CBF22FAED
:102980000CF213434FF0010C4CEA0C2C4CEA0C4CAB
:10299000A3EB0C0222EA030212EACC1204BF51F8A4
:1029A000043B0430F4D013F0FF0F1FBF013013F4C9
:1029B0007F4F013013F47F0F18BF0130704700BF05
:1029C000024B13B1024800F005B870470000000048
:1029D000E1290000014600200246034600F018B835
:1029E00038B5094D094C641BA41018BF05EB8405CC
:1029F00005D0013C55F8043D9847002CF9D1BDE8BD
:102A0000384000F0C7B900BF00000000000000001F
:102A1000F0B5274C2668D6F8484185B00746002C0B
:102A200041D065681F2D1EDD224818B94FF0FF30D8
:102A300005B0F0BD4FF4C870039102920193AFF35B
:102A400000800399029A019B04460028EED0D6F834
:102A500048512560002060600546C6F84841C4F82A
:102A60008801C4F88C013FB9AB1C002001356560BA
:102A700044F8231005B0F0BD04EB85004FF0010CC5
:102A8000C0F88820D4F888610CFA05F21643022FAA
:102A9000C4F88861C0F80831E6D1D4F88C311A4303
:102AA000C4F88C21E0E706F5A674C6F84841B8E7FB
:102AB0006C2D0000000000004008FE4340A00440D0
:102AC0004408FE4344A004400018FE4300C00440F4
:102AD0003000FE43309004403400FE433490044004
:102AE0001C18FE431CC004401018FE4310C00440D4
:102AF0000818FE4308C004400C18FE430CC00440F4
:102B00000C10FE430CB004401010FE4310B0044003
:102B10001810FE4318B004401C10FE431CB00440C3
:102B20001410FE4314B004400418FE4304C00440D3
:102B30000010FE4300B004400008FE4300A0044023
:102B40000408FE4304A004400C08FE430CA004400B
:102B50000808FE4308A004401418FE4314C00440B3
:102B60001818FE4318C004400410FE4304B004408B
:102B70000810FE4308B004401400FE4314900440C3
:102B80004C08FE434CA004400420FE4304D0044003
:102B90002410FE4324B004402010FE4320B0044023
:102BA0002810FE4328B004402C10FE432CB00440F3
:102BB0000020FE4300D004404808FE4348A00440E3
:102BC0001000FE43109004400000000000000000D0
:102BD000451200004B1200003112000035120000B7
:102BE000391200003D1200004112000000000000F8
:102BF0000000000000000000631300007B130000D1
:102C00004B130000531300004F1300005713000034
:102C1000E1120000F312000013130000171300006C
:102C20001D130000231300002B1300003B130000B2
:102C30005B1300005F130000B1120000BD12000022
:102C4000C9120000D51200008B1300006F130000A2
:102C50000000000000000000731400008B1400004E
:102C60005B140000631400005F1400006714000090
:102C7000F1130000031400002314000027140000C7
:102C80002D140000331400003B1400004B1400000E
:102C90006B1400006F140000C1130000CD1300007E
:102CA000D9130000E51300009B1400007F140000FE
:102CB00000151915000100006887FF1F12000000B1
:102CC000000200009287FF1F430000000003000085
:102CD000EC87FF1F00000000010309047A87FF1F33
:102CE0000000000002030904D687FF1F0000000057
:102CF00003030904F087FF1F00000000000000002C
:102D000000000000000000000000000000000000C3
:102D1000772800008F2800005F2800006728000047
:102D2000632800006B280000F5270000072800003A
:102D3000272800002B280000312800003728000039
:102D40003F2800004F2800006F2800007328000073
:102D5000C5270000D1270000DD270000E92700007B
:102D60009F28000083280000430000001088FF1FF8
:102D7000F8B500BFF8BC08BC9E467047C1290000EA
:102D80003504000055120000A5130000B514000022
:042D9000B92800005E
:042D9400F8B500BFCF
:102D98000A040800FFFFFFFF1201010102000040C2
:102DA800C0168304000201020301180354006500E1
:102DB80065006E00730079006400750069006E009C
:102DC8006F0009024300020100C03209040000013B
:102DD8000202010005240010010524010101042458
:102DE80002060524060001070582031000400904B5
:102DF8000100020A00000007050302400000070561
:102E080084024000000016035500530042002000D1
:102E1800530065007200690061006C000403090436
:102E28000C0300000000000000000000000000008B
:102E380000000000000001090A0000000000000076
:102E480000000000FC8AFF1F648BFF1FCC8BFF1F54
:102E5800000000000000000000000000000000006A
:102E6800000000000000000000000000000000005A
:102E780000000000682D00000000000000000000B5
:102E8800000000000000000000000000000000003A
:102E9800000000000000000000000000000000002A
:102EA800000000000000000000000000000000001A
:102EB800000000000000000000000000000000000A
:102EC80000000000000000000000000000000000FA
:102ED80000000000000000000000000000000000EA
:102EE80000000000000000000100000000000000D9
:102EF8000E33CDAB34126DE6ECDE05000B0000009E
:102F080000000000000000000000000000000000B9
:102F180000000000000000000000000000000000A9
:102F28000000000000000000000000000000000099
:102F38000000000000000000000000000000000089
:00000001FF
