:1000000000800020BD010000812000004D20000084
:100010004D2000004D2000004D2000004D2000002C
:100020004D2000004D2000004D20000081200000E8
:10003000812000004D200000812000003D200000B4
:10004000812000008120000081200000812000002C
:10005000812000008120000081200000812000001C
:10006000812000008120000081200000812000000C
:1000700081200000812000008120000081200000FC
:1000800081200000812000008120000081200000EC
:1000900081200000812000008120000081200000DC
:1000A00081200000812000008120000081200000CC
:1000B00081200000812000008120000081200000BC
:1000C00081200000812000008120000081200000AC
:1000D000812000008120000081200000812000009C
:1000E000812000008120000081200000812000008C
:1000F00081200000A532000081200000613900004D
:1001000081200000312B00008120000081200000B0
:10011000812000008120000081200000812000005B
:10012000812000008120000081200000812000004B
:10013000812000008120000081200000812000003B
:10014000192700008120000081200000812000008C
:10015000812000008120000081200000812000001B
:1001600081200000C11900008120000081200000D2
:1001700081200000812000008120000081200000FB
:1001800081200000812000008120000081200000EB
:1001900081200000812000008120000081200000DB
:1001A00081200000812000008120000081200000CB
:1001B000812000008120000081200000564B4CF27D
:1001C000205210B51A804DF628121A8000BF00BFC9
:1001D00001F05AFF514B4FF010621A60504A9A607A
:1001E000504ADA60A3F53043203B1A6812F480725B
:1001F00004D14D490A604FF4A8521A604B4B1A784B
:10020000110703D51A7842F008021A70484B2A22C7
:100210001A700023474A48499818884204D247492F
:10022000595899500433F5E7454A464B9A424FF0E6
:10023000000302D242F8043BF7E74349434A5958C6
:1002400099500433B3F5DE7FF7D1414B802103F899
:10025000011B40498B42F9D13F4B1A603F4B8A2228
:100260001A70A3F5805324225A70A0221A709A792A
:100270009207FCD59A79D406FCD4394B9A7902F0CE
:100280000C02082AF9D103221A7140225A719A7974
:100290009006FCD5324B9A795106FBD5314A32494A
:1002A00011600221516020221A702D4B9B7903F0BE
:1002B0000C030C2BF9D12D4B2D4A1A602D4B2E4AD5
:1002C0001A6000225A60072243F8042C2B4AC3F814
:1002D0000C2D62B601F08EF8134B1B68DA0705D5BA
:1002E000274800F001FF274B274A1A60274B1B784D
:1002F0005B0609D5234C244A2368934204D1204845
:1003000000F0F2FE0023236003F036FC01F0C2FE91
:1003100000F0B2FEFEE700BF0E2005403080044032
:10032000823F04000100002B14D0034002D007409C
:1003300000E007406087FF1FD494FF1FDC4D0000E2
:10034000D494FF1F08360020000000000082FF1F29
:1003500000E400E05FE400E008ED00E0005006404B
:100360000040064044800440000003010480044033
:10037000C010050014E000E0FF760100000020201E
:1003800000DD68501CE00340A5C3945A00F007400C
:10039000FFFFFFFFFFFFFFFFFFFFFFFFFFFFFFFF6D
:1003A000FFFFFFFFFFFFFFFFFFFFFFFFFFFFFFFF5D
:1003B000FFFFFFFFFFFFFFFFFFFFFFFFFFFFFFFF4D
:1003C000FFFFFFFFFFFFFFFFFFFFFFFFFFFFFFFF3D
:1003D000FFFFFFFFFFFFFFFFFFFFFFFFFFFFFFFF2D
:1003E000FFFFFFFFFFFFFFFFFFFFFFFFFFFFFFFF1D
:1003F000FFFFFFFFFFFFFFFFFFFFFFFFFFFFFFFF0D
:10040000FFFFFFFFFFFFFFFFFFFFFFFFDEF9FFFF23
:1004100010B5054C237833B9044B13B10448AFF33E
:1004200000800123237010BDD494FF1F0000000042
:10043000DC4D000008B5064B1BB106480649AFF37A
:1004400000800648036813B1054B03B1984708BD07
:1004500000000000DC4D0000D894FF1FD494FF1F63
:1004600000000000064B1A6801321A601A68092A57
:1004700004D9044A0121117000221A60704700BF9C
:10048000C095FF1F8887FF1F01F09AB901F0ACB932
:1004900038B501F069FE0328FBDD01F023FE0546B7
:1004A00001F020FE044601F01DFE000400EB0424D0
:1004B00001F018FE2C4404EB006038BD10B501F0CB
:1004C00053FE0128FBDD01F00DFE044601F00AFE9B
:1004D00004EB002080B210BD10B50446C0B201F09C
:1004E000D1FE200ABDE8104001F0CCBE012838B58D
:1004F00014D119B9264B274A1B683EE0012903D1C4
:10050000254B264A1B6838E0032903D1244B254A92
:100510001B6832E0042931D1234B2CE0022814D18E
:1005200019B9224B224A1B6827E0012903D1214B2C
:10053000214A1B6821E0032903D1204B204A1B6874
:100540001BE004291AD11F4B15E0032816D119B955
:100550001D4B1E4A1B6810E0012903D11C4B1D4A8C
:100560001B680AE0032903D11B4B1C4A1B6804E0EB
:10057000042903D11A4B1B681A4A14681846FFF75E
:1005800083FF05462046FFF77FFF05EB002038BDBF
:10059000AC8BFF1F7087FF1FB08BFF1FB48BFF1F3B
:1005A000D88BFF1FDC8BFF1F9087FF1FC88BFF1F9F
:1005B000CC8BFF1FD08BFF1FD48BFF1FBC8BFF1F6B
:1005C0006087FF1F9487FF1F7887FF1F7C87FF1FAF
:1005D0008087FF1F8487FF1FC08BFF1F6887FF1F57
:1005E0009887FF1F8C87FF1F82B0F8B50C4606A9BD
:1005F00081E80C0006469DF81C0001F019F805463C
:10060000301A04F07BF80A9904F0CCF804F01AFAD6
:100610000D9B002B144B1968144B0CBF4FF0FF328D
:10062000012250431A68124B1B680226D71897FB09
:10063000F6F601FB00619142A8BF0A469A42B4BF98
:10064000114619460B4B1B7823B10B4B1B6804EB6F
:10065000430399819DF8200000F0B4FD2560BDE8BA
:10066000F84002B0704700BF6C87FF1FB88BFF1FB8
:10067000C48BFF1F8887FF1F1496FF1F0268012A83
:1006800008B5034601D10A4A06E0022A01D1094A07
:1006900002E0032A04D1084A1068197FFFF7F6FE2A
:1006A000064B00211868BDE80840FFF7EFBE00BF09
:1006B0009087FF1F9487FF1F9887FF1F8C87FF1F5E
:1006C00038B50546007900F0B3FF2B68012B0446CE
:1006D00006D1104BE1B21868FFF7D8FE0E4B10E0C0
:1006E000022B06D10D4BE1B21868FFF7CFFE0C4B81
:1006F00007E0032B0CD10B4BE1B21868FFF7C6FEE5
:10070000094B1868C4F30721BDE83840FFF7BEBEA7
:1007100038BD00BFD88BFF1FDC8BFF1FBC8BFF1FBA
:100720006087FF1FC08BFF1F6887FF1F38B5044617
:10073000007900F07DFF2E490A8883B29A4205466F
:100740002C4A01D90B8003E01088984238BF1380EF
:100750001388236423680988E163012B12D1264B97
:10076000C9B21868FFF792FE244B94F83D10186840
:10077000FFF78CFE224B94F840101868FFF786FEB6
:10078000204B28E0022B12D11F4BC9B21868FFF78B
:100790007DFE1E4B94F83D101868FFF777FE1C4B4A
:1007A00094F840101868FFF771FE1A4B13E0032B02
:1007B00016D1194BC9B21868FFF768FE174B94F8A9
:1007C0003D101868FFF762FE154B94F8401018684A
:1007D000FFF75CFE134B186894F84110FFF756FEC4
:1007E000A5F10A00B0F57A7F8CBF0020012038BD4A
:1007F0006095FF1F4895FF1FAC8BFF1F7087FF1F81
:10080000B08BFF1FB48BFF1FC88BFF1FCC8BFF1F4C
:10081000D08BFF1FD48BFF1F7887FF1F7C87FF1FA4
:100820008087FF1F8487FF1F84B02DE9F04F564F4C
:10083000564E95B01FAD85E80E0082460121387BEB
:1008400000F062FC307B012100F05EFC504B012186
:10085000187B00F059FC00244E4B1B689C4280F032
:1008600081804D4B1A780AB9013C79E01A78002A48
:1008700076D000221A70494B1B78042B56D1484B76
:100880004849D3F800B0DBF8083033F814C0FB6CEB
:100890004FF0AC094FF47A781CFB09FC9CFBF8FC88
:1008A0009C4448226846CDF84CC001F099FEDDF822
:1008B0004CC097E80C0060465946FFF795FE3A4B4E
:1008C0003A49D3F800B0DBF8083033F814C0F36CC1
:1008D0001CFB09FC9CFBF8FC9C4448226846CDF8B4
:1008E0004CC001F07DFEDDF84CC096E80C0060467F
:1008F0005946FFF779FE2E4BD3F800B0DBF80830ED
:1009000033F8143013FB09F999FBF8F9DFF880800C
:10091000D8F84C3008F1080199444822684601F0A3
:100920005FFE98E80C004846594617E0DAF80830B0
:1009300033F81480AC2318FB03F84FF47A72329B1F
:1009400098FBF2F8434421A9482268460FFA83F83D
:1009500001F046FE95E80C0040465146FFF744FE84
:10096000013479E7387B002100F0CEFB307B002199
:1009700000F0CAFB064B187B002115B0BDE8F04F14
:1009800004B000F0C1BB00BFC495FF1F800B002066
:10099000F894FF1F4C95FF1F8887FF1FF494FF1FDB
:1009A000BC95FF1FCC95FF1FF094FF1F880B002004
:1009B0005495FF1F84B038B504AC84E80F009DF84F
:1009C000140000F035FE049D044600212846FFF780
:1009D0008DFD0230A04209DA28460121FFF786FD8D
:1009E0000238A042CCBF0020012000E00120BDE879
:1009F000384004B07047FFFF2DE9F843474E484D9B
:100A00003079DFF87491474CDFF87081464F00F081
:100A10000FFEC9F80400287900F00AFEC8F80400A7
:100A2000207900F005FE01217860307A00F08CFB1F
:100A3000287A012100F088FB207A012100F084FB54
:100A4000307B012100F080FB287B012100F07CFB42
:100A5000207B012100F078FB307A7F2100F0B2FB8F
:100A6000287A7F2100F0AEFB207A7F2100F0AAFBDC
:100A7000307B002100F048FB287B002100F044FB84
:100A8000207B002100F040FB284B00211970284BEF
:100A900045F6C0521A80274B1868196026490A602B
:100AA00000F0400242F028021A60244A24491160F2
:100AB0001A68244942F040021A60234B01221A604E
:100AC000224B1E60224B1D60224B1C60224BC3F840
:100AD0000090224BC3F80080214B06F12C001F60D0
:100AE00003F02CFB05F12C001E4903F027FB04F159
:100AF0002C001D4903F022FB1C4B04211868FFF752
:100B0000C5FC1B4B05211868FFF7C0FC194B0621DB
:100B10001868BDE8F843FFF7B9BC00BFC495FF1FD4
:100B2000800B0020F894FF1F58E4FF1F263400209C
:100B30002434002000800B4008800B40E88BFF1F0E
:100B400065040000AA4A000008E100E0740B0020E0
:100B5000EC3200205095FF1FBC95FF1FF094FF1F43
:100B60005495FF1FB04A0000B64A0000780B0020E1
:100B70006487FF1F7487FF1F2096FF1F3CBDFF1F68
:100B80002DE9F04F8D4A8E4C8E4F8F4D8F4E0023A6
:100B900093B0136023703B702B6033609046D8F89D
:100BA0000030002B5ED101F0DFFA0928F7DD01F0FB
:100BB00099FA207001F096FAC0B20128387010D16D
:100BC0008349844842F21C7201F00AFD5022824897
:100BD000824901F005FD824B1A68824B1A60824BF4
:100BE00024E0022810D181497A4842F21C7201F0B7
:100BF000F7FC502278487E4901F0F2FC7D4B1A68E0
:100C0000784B1A607C4B11E0032812D17B49714864
:100C100042F21C7201F0E4FC50226F48784901F066
:100C2000DFFC784B1A686F4B1A60774B1A68774B6A
:100C30001A602378012B07D1FFF72AFC744B186048
:100C4000FFF726FC286009E0FFF722FCDFF8CC91D3
:100C5000A9F80000FFF71CFCA9F800000123C8F860
:100C600000309CE723780B2B00F0A88127D8012BBC
:100C700000F06D810A2B40F0D881644C654F2368E9
:100C8000654E187900F0D4FC564B25681B6880B27D
:100C90009B88EB632B6438803080287900F0C8FC97
:100CA00080B2E8642068FFF7E9FC2068FFF708FDE0
:100CB0000020B846FFF710FC002537464CE00F2B0C
:100CC00000F09C81FF2B31D00C2B40F0AE81002036
:100CD000424DDFF80C81464FDFF81891484EFFF780
:100CE000FBFB642000F070FB2879D8F8004000F08E
:100CF0009FFC60603879D9F8004000F099FC606092
:100D0000404C3079D4F800A000F092FC0121CAF8E0
:100D10000400287B00F0F8F9387B012100F0F4F999
:100D2000307B012100F0F0F9A246B8E02A4C012006
:100D3000FFF7D2FB04F10C014422684601F050FC9D
:100D4000284894E80E000068FFF76EFD03201EE0BF
:100D500001F0C8F90B280AD02068FFF7E7FC00284B
:100D600008BF012501F000FA0928F5DDF0E7FFF7DB
:100D70008FFB2A4E3080FFF78BFB308001F0B2F9F9
:100D800030804DB140F29A20FFF7A6FB002013B04F
:100D9000BDE8F04FFFF7A0BB2368988BFFF79CFBE3
:100DA0002368B3F84C00FFF797FBB8F80000FFF793
:100DB00093FB3888FFF790FB2846E8E75C95FF1F18
:100DC0001896FF1FF494FF1F5895FF1FB495FF1F3F
:100DD0002096FF1FD00B00206495FF1FC495FF1FB6
:100DE000BC95FF1F7C0B0020740B00203CBDFF1F37
:100DF000800B0020F094FF1FEC32002058E4FF1F0E
:100E0000F894FF1F5495FF1F5095FF1F1C96FF1F5E
:100E10004C95FF1F6095FF1F4895FF1FB895FF1F5A
:100E2000874B1878002840F0068101F09DF90028D2
:100E300063DD01F057F9B0F10D03D3F1000B5BEB6B
:100E4000030BDFF828E2BEE80F006C460FC4BEE8D3
:100E50000F000FC4BEE80F000FC49EE80F0084E827
:100E60000F0095E80F00FFF7A5FD002848D1DFF837
:100E700000E2BEE80F006C460FC4BEE80F000FC4CE
:100E8000BEE80F000FC49EE80F0084E80F0096E84C
:100E90000F00FFF78FFDBBF1000F31D180BBD8F8F9
:100EA000004068494822684601F09AFB95E80C002A
:100EB00060682146FFF798FBD9F800406249482254
:100EC000684601F08DFB97E80C0060682146FFF74B
:100ED0008BFBDAF800405D494822684601F080FB50
:100EE00096E80C0021466068FFF77EFB584A1168BF
:100EF00041F28733994298DC92E74FF0000BA0E76C
:100F0000287B002100F000F9387B002100F0FCF87C
:100F1000307B002100F0F8F80024D8F80030251DBF
:100F20006D002B4401349888FFF7D6FAD9F80030C9
:100F30002B449888FFF7D0FADAF800301D44A888CF
:100F4000FFF7CAFA41F288339C42E6D11EE7414FCF
:100F5000DFF820813888FFF7BFFA3868D8F80040FA
:100F6000400002F031FEA060002439688C4210D2AB
:100F700001F0FAF8012809DDFFF7A0FA364B1880D6
:100F8000D8F800309B6823F8140000E0013C0134DD
:100F9000EBE7D8F80040336800228A4205D0A06809
:100FA00030F9120001320344F7E72A6833609342B4
:100FB000294B0CBF002002201880E8E63C78002175
:100FC0002046FFF793FA012105462046FFF78EFAE7
:100FD000032107462046FFF789FA042106462046EA
:100FE000FFF784FA1D4B1B68ADB2BCB2B6B2DD632D
:100FF0001C64DE6480B2FFF76FFA0EE0184B1868CD
:10100000FFF742FA174B06461868FFF73DFA164BF2
:1010100005461868FFF738FA04463046FFF75CFAD1
:101020002846FFF759FA2046AEE60A2013B0BDE87D
:10103000F04F00F0C9B90131116000221A70F4E6D6
:101040008887FF1FCC95FF1F880B00200095FF1F8E
:101050001496FF1F4C95FF1FB895FF1F1C96FF1F8E
:10106000780B00206487FF1F7487FF1FD495FF1F34
:101070000895FF1F7C0B002008B5FFF7BDFCFFF7AC
:101080007FFDFCE738B500F057FB104B104D18689A
:10109000FFF7FAF9502404FB005122460D4801F0F5
:1010A0009FFA0D4B1868FFF7EFF9224604FB005139
:1010B0000A4801F095FA0A4B1868FFF7E5F922464D
:1010C00004FB0051074801F08BFA38BD780B002073
:1010D0009C87FF1FC495FF1F6487FF1F800B0020A4
:1010E0007487FF1FF894FF1F044B054900221A6004
:1010F0000A60044A106010221A60704714D003403E
:1011000004D0034000D00340212810B518D80D4A60
:1011100052F8303093F880423CB1012211B183F88B
:10112000802010BD83F8002110BD02EBC000436891
:101130001A6811B142F0030201E022F002021A60C3
:1011400010BD00BFBC4A0000212810B537D81C4A8A
:1011500002EBC00301295B68144601D004290FD1BA
:1011600054F83020012082F880024FF4A2721A60F5
:101170001A6804290CBF42F0200222F020021DE070
:1011800052F83020002082F8800211B18A1E012A14
:1011900012D84FF4807202291A6003D11A6842F003
:1011A00003020BE003290AD11A6842F002021A6016
:1011B0001A6822F0010201E040F203121A6010BD29
:1011C000BC4A0000282838B5604A04460B4611D1B5
:1011D00012780B2A04D8C2F10C0201FA02F304E0DF
:1011E0000C2A1CBF0C3A41FA02F31846BDE83840FD
:1011F00000F080BA11780125002B05FA01F2D8BF62
:10120000002102DD934205D32946FFF77DFF2046EA
:10121000294697E00338C2B2012A01D84C4A06E0B9
:10122000202C01D0192C01D14A4A00E04A4A126808
:1012300002FB0332CA401D287BD8DFE800F0575F6D
:101240004E337A7A212A7A7A7A7A7A7A7A7A7A3C58
:10125000450F187A707A7A7A7A7A7A673F4B1A60F1
:1012600003F5973340F2444203F5FA735FE03C4BD9
:101270001A6003F5973340F2444203F5F87356E0E1
:10128000384B1A6003F5973340F2444203F5F67386
:101290004DE0354B1A6003F5973340F2444203F5B5
:1012A000F47344E0314B1A6003F59F3340F244423B
:1012B00003F5F0733BE02E4B1A6003F59F3340F2C9
:1012C000444203F5EE7332E02A4B1A6003F59F3374
:1012D00040F2444203F5EC7329E0274B1A6003F512
:1012E0009F3340F2444203F5EA7320E0234B1A6037
:1012F00003F580334FF45172203318E0204B1A600D
:1013000003F580334FF451721C3310E01D4B1A600B
:10131000A3F5DB234FF45172A3F5F96307E01A4BF1
:101320001A60A3F5DB234FF45172A3F2CC731A6059
:1013300038BD7F2B2046D4BF00210121FFF7E4FEFA
:1013400020460121BDE83840FFF7FEBEE08BFF1FBD
:101350000890034008800B40088003401080034041
:1013600018800340208003402880034030800340E1
:101370003880034040800340488003401090034081
:101380001890034010800B4018800B4072B60B4B36
:101390000B491A680B4B1B68096862B6490102D5F4
:1013A000322A88BF0133C2F5BB326021FF32B2FB63
:1013B000F1F24FF47A7000FB0320704718E000E070
:1013C00004ED00E0F032002038B50446FFF7DEFF00
:1013D000054624B938BD013C0AD005F57A75FFF7FA
:1013E000D5FF401BB0F57A7FF5D200F0C9FFF6E7D4
:1013F00038BDFFFF204B4FF4000210B51A604FF0CC
:1014000080721A604FF000721A604FF080621A60AA
:101410004FF000621A60194B194A1A4C00204BF623
:10142000FF71186059602823136093601361936102
:1014300013629362136393630922226004F580545C
:10144000043420606160A360236144F8042C04F537
:10145000FE2420600C4801600C490B608B600C4B33
:101460001A6000F089F84FF4C870FFF7ADFFBDE8CF
:10147000104000F0A3BD00BF08E100E0048003407D
:101480000C8003400080034008800B400C800B4020
:1014900000800B40F0B5304B1B681B06FBD42F4B74
:1014A0001B6813F08002F6D172B62D4B1978002913
:1014B00050D02C4908684F688E68CD680C69384454
:1014C000143130440968284420440844C0F34E00D5
:1014D000254940F400400860C86A0F6B4E6B8D6B65
:1014E000CC6B3844403130440968284420440844D7
:1014F000C0F34E001D4940F40040086001F108119E
:10150000143151F8140C51F8107C51F80C6C51F84E
:10151000085C51F8044C096838443044284420449D
:101520000844C0F34E00124940F400400860C86A05
:101530000F6B4E6B8D6BCC6B384440313044096877
:10154000284420440844C0F34E000A4940F40040B7
:1015500008601A7062B6F0BD24B0034024B00B409E
:10156000F532002038B003402CB0034030B00340C7
:101570002CB00B4030B00B4010B5204B2048214917
:1015800060221A70E1225A701F4B204A1C78204BAF
:10159000082C01D1012402E00A2C03D13924046073
:1015A000132005E00C2C0CBF35243D2404601220D0
:1015B000086014601860174B17491B78174A03B16D
:1015C00001230B601360164B164A1978164B01293C
:1015D00001D880210BE0042901D8842107E00829E3
:1015E00001D8852103E0102994BF8621872111604D
:1015F00019600E4B01221A7010BD00BF0040074059
:1016000008B003400CB00340E18BFF1F08B00B4053
:101610000CB00B40F832002020B0034020B00B404B
:10162000E28BFF1F24B0034024B00B40F5320020B2
:10163000282838B547D8254B1C5CFF2C43D0244BB9
:101640001B780BB1FFF726FF210614D472B6214B8D
:10165000214D1C6001232B7062B672B61D4B1B68B6
:101660001A0601D51D4B1FE02B78002BEFD062B678
:1016700000F086FEF1E772B6194B1A4D1A6814F0A5
:10168000400F14BF22F0100242F010021A60164BF5
:1016900004F03F021A6001232B7062B672B6124B3F
:1016A0001B681B0608D5114B186800232B7062B607
:1016B0000F4B1B78184138BD2B78002BDCD062B65D
:1016C00000F05EFEEAE7002038BD00BFCC4B000012
:1016D000F532002000B00340F732002010B0034084
:1016E0000CB00B40F632002000B00B4010B00B40A5
:1016F000F4320020084B1A6842F480521A60074BFB
:101700001A78074B0AB1802200E0C0221A70054BFC
:1017100080F30C00188070472C800440F8320020C1
:1017200021C00C4000C00C40024B1B78DB07FBD5EE
:10173000704700BF010002407FB51C4B6A4603F1B1
:1017400010056E4618685968144603C40833AB4246
:101750002246F7D1164B1A7812F0020F1D461CD004
:10176000144A154B117811F0700118BF11708022C6
:101770001A70002203F8032C33221A710322DA7044
:1017800072B60C4C46F001062046B04762B623788C
:1017900013F0700301D0237005E0084B2A78D207BC
:1017A00001D4013BFAD104B070BD00BFF64B00007C
:1017B000010002400000024007000240410D03000A
:1017C000B0F5006F10B504460AD2064B1B78DB0754
:1017D00001D4FFF7B1FF04F1A0542078C0B210BDCE
:1017E000002010BD01000240B0F5006F38B504467E
:1017F0000D4615D20B4B1B78DB0701D4FFF79CFF7E
:1018000004F1A0542378AB420AD0074B1A7812F0A7
:10181000700218BF1A702570BDE83840FFF784BF0A
:1018200038BD00BF0100024000000240F0B50C4B83
:101830000C4C1A7842F0020504EBC50682F0010256
:10184000706009481A700678002E0CBF8827C827D8
:1018500086F0010647EA0141067044F83510F0BDF4
:10186000643300200080FF1FDC330020431E032B65
:1018700010B510D872B6094A52F8230048B1416831
:1018800042F82310064A018832F81340611A22F800
:10189000131062B610BD002010BD00BF54330020ED
:1018A000F0350020013803280AD872B6054B53F8EA
:1018B0002030002013B101305B68FBE762B670474F
:1018C00000207047A833002010B572B60123174AD4
:1018D0001A4412F8012C12071CD59900144A52F828
:1018E00031402CB902EB431308305860114B09E02A
:1018F00041F0010152F8314064B902EBC1030830F4
:1019000058600D4B42F831300C4B1A78013A1A707E
:1019100062B610BD0133052BD9D162B6074B002248
:101920001A70BDE8104001F0A7B900BFF04C0000EC
:101930000080FF1F88004000C8004000D233002014
:10194000431E032B30B532D8194A400140F0100035
:10195000104472B6174CE25C032A09D8DFE802F0A3
:10196000160218050830022213E00830042210E0A5
:101970001148124A50F8234014B940F8231002E0ED
:1019800052F82300416042F823100FE0032200E0E8
:101990000522E25410F0080F01F108030A884360A1
:1019A0000CBF8823C82343EA0243036062B630BDFC
:1019B0000080FF1F10330020A8330020B833002020
:1019C0002DE9F84FAB4F3C78E4B214F0040F3D46DC
:1019D00019D0A94B1B78A3B1A84A117801F0FF03D5
:1019E00021B1013BDBB2137003B900BEA44A1178E8
:1019F00001F0FF0329B1013BDBB213700BB900F01A
:101A00007BFC04233B7004F0080303F0FF02002B6F
:101A100000F067829B4B9C4C1A78D2B215094FEAB2
:101A2000920840F0E48104EBC803596854F8383058
:101A3000C3F38303013B0C2B00F2D681DFE813F0E4
:101A400095019501D401D401D401D401D401D4016C
:101A5000B001D401D401D4010D008C4D0A684B684B
:101A60008B486B6001218B4B44F838302A60DFF8DB
:101A70005082017092B240F2816000238242C8F825
:101A800000302361A36117D8B2F5D06F80F01E81BA
:101A9000B2F5817F00F0CF8006D8802A00F0BA80AE
:101AA000822A00F0BB8031E140F202339A4200F01A
:101AB000D180B2F5A06F1CE042F22100824200F01A
:101AC00051810ED8B2F5086F00F09E80B2F5106F0C
:101AD00040F01C81684B6C4EAA781A7006F18009A0
:101AE0000AE042F221218A4200F0088142F22133C9
:101AF0009A4200F00F8109E1336A1B0603D5706A30
:101B0000083801F0B9F808364E45F5D10026B1463F
:101B1000DFF8B0A156F80A0028B1D0F804B001F0FF
:101B2000ABF85846F8E74AF806005B4BDFF898A197
:101B3000F05056F80A0028B1D0F804B001F09CF833
:101B40005846F8E7554B4AF80600F050544B23F836
:101B50001900544B19F80320023A032A08D8DFE889
:101B600002F002040204002200E0012203F809202E
:101B700009F10109B9F1040F06F10406C8D14A4B75
:101B800000221A7001269A46484A494B324433448F
:101B900012F8012C9B0012F0080F1A704FEA860908
:101BA00025D001F04BF838B104EB461308305860EB
:101BB000404B44F8393006E09AF8003044F83900D8
:101BC00001338AF8003001F039F849F0010338B1E7
:101BD00004EBC302083050602E4A44F8332006E07C
:101BE00044F833009AF8003001338AF8003049F0A5
:101BF0000202013649F003090023052E44F8323071
:101C000044F83930C0D186E01B4B2B4C1B78237035
:101C10000B4683E0284C237063707EE0AA88042A78
:101C200074D8254C920023706370244B9B5C9E07F4
:101C300073D5217071E0AA8802F07F02042A65DC66
:101C40006B88002B62D191001C4A0A44117821F064
:101C5000020159E0AA8802F07F02042A56DC6B8850
:101C6000002B53D19100154A0A44117841F002012A
:101C70004AE000BF80200740DB33002065330020AE
:101C8000DD330020902007400080FF1FC833002074
:101C9000DC330020C800400000330020B8330020AF
:101CA000F035002010330020D2330020F04C00002B
:101CB00030C8011088004000D3330020C020074006
:101CC000FC32002054330020A83300206A88A98801
:101CD0009F4B53F8084CA3F10C00BCB133F80C6CCB
:101CE000964209D133F80A6C8E4205D1120A032AB2
:101CF0000CBF2378038911E00C33EAE7954A116899
:101D0000954A1160A978954A117004E0944B0F220E
:101D10001A7027E000231C4600E00223EE88B3423D
:101D200038BF1E46402E34BF354640252046294642
:101D3000FFF77CFD761B2C4403D1402D12D1354694
:101D400003E0402E34BF3546402520462946FFF7A4
:101D50006DFD761B2C4401D1402D03D1814AC8F87A
:101D6000004016800122804B3DE0804B1A8842F2F1
:101D700021039A4210D100237D4AC85C9854013354
:101D8000072BF9D11368862B02D17A4B0F221A70D8
:101D900000200146FFF74AFD774B44F8383023E036
:101DA000764E3568B5B1DFF8BC81B8F80090B9F16E
:101DB000400F34BF4C46402428462146FFF736FDED
:101DC000C4EB09039BB2A8F800300BB9402C00D13A
:101DD0002B193360654B1A88B2F5A06F04D100222D
:101DE0005A709A78664B1A7001225F4B6CE004EBD4
:101DF000C806013D736802F00802A3F10800EDB2C5
:101E000002F0FF01002A36D000F036FF5D485E4B3D
:101E100050F82520EAB1516840F8251002F1080178
:101E20007160595D03290BD8DFE801F00204060850
:101E3000032104E0022102E0052100E004215955BC
:101E400016F0080F12880CBF8823C82343EA024308
:101E500042E05A5D032A07D8DFE802F0404002045E
:101E6000002206E0012204E016F0080F0CBF022257
:101E700003225A5532E054F83820120C23F8082C6B
:101E800022B3DFF834E123F8061C43F8041C5EF8A3
:101E900025303E4913B94EF8250002E051F82530AF
:101EA00058603B4B41F8250033F815100A4423F8DD
:101EB000152000F0C3FE10B10830706006E0354B0D
:101EC00044F838001A7801321A7007E02A4B324A77
:101ED00016F0080F08BF134644F8383008233B704B
:101EE00070E5E0071FD520492B482C4C02230B70CE
:101EF0002B4B1A702B4B186098602B48D8601A61D6
:101F00009A615C60164B0D2018702848FF230370FF
:101F10002B700274264A1370264B9F221A700123DD
:101F20000B70BDE8F88F210604D50D4B0D221A70F9
:101F300080232B70A20705D51C4B1A78D2B21A70D9
:101F400002232B70E30644BF10232B70BDE8F88FEB
:101F5000004D0000F032002000360020EC3300205D
:101F6000C0200740D033002094200740C833002011
:101F7000F835002065330020C8004000FC32002006
:101F800098200740A83300201033002000330020A1
:101F9000F0350020D23300208800400014330020A8
:101FA000643300200080FF1F683300208820074032
:101FB0008C200740842007405433002008B500F0EF
:101FC0007DFE00221A4B0021D15098180832882A31
:101FD0004160F7D1174A106840F48020106002F584
:101FE00028326832C3F307201070C3F307401B0E7A
:101FF00010751376FF2302F81C3C02F8143C02F81B
:102000008C3C012302F8083C82F8641002F8183C6A
:10201000094B70226FF450711A700B444FF4007228
:102020001A6003F1C04303F5C82310221A7008BDDB
:102030000080FF1F3480044049E400E0024B1A682E
:1020400001321A60704700BFF032002008B50B4C17
:102050002368580301D5FFF7B3FC2368590501D560
:1020600001F020F923681A0501D501F079FC2368F5
:10207000DB04ECD500F05CFDE9E700BF34800440F0
:1020800008B5FFF7E3FFFFFF014B10221A807047EE
:10209000002005407047FFFF024A13681844106093
:1020A00018467047E48BFF1FEFF313839BB9EFF3E0
:1020B000108098B9EFF3058323B10F2B04D9084A98
:1020C000985C01E04FF48070EFF311833BB18342E1
:1020D00038BF184670474FF0FF30704718467047BA
:1020E000F0E300E010B5104C23686BB12068428823
:1020F000531C0244147A0288934212D300F0BCFDB0
:10210000094B00221A600DE0084B1B7813B94FF001
:10211000FF3010BD0320FFF7A9FB20600028E5D1A8
:10212000F5E74380204610BDE8330020DB33002074
:1021300010B50B4C236813B123686BB902E0094B4F
:102140001B7813B94FF0FF3010BD0320FFF78EFB53
:1021500020600028F0D1F5E75A881344187A10BDA2
:10216000E8330020DB330020044B9888044B1B68C5
:102170001BB11A885B88D31A18447047F0350020C9
:10218000E833002010B5094B1B786BB1084C206870
:1021900018B100F071FD002323600320FFF766FBF8
:1021A00010B100F069FDF8E710BD00BFDB3300207F
:1021B000E83300202DE9F8432D4E012307460C4655
:1021C0003370002C4FD02B4D2B68A9462BBB4AF205
:1021D000F928294B1B7803F0FF020BB9327015E088
:1021E0000420FFF75FFB072808D80123337000F0B5
:1021F00025FDC9F8000080B91D4B1870B8F1010821
:102200001E4B01D01A782AB101221A704FF0FF300C
:10221000BDE8F88300F0B4F8DBE72968174A48887E
:1022200000231370C0F14002944238BF224600F1EF
:10223000080C10448C444880A41A934204D0F85CE3
:102240000CF803000133F8E71F444B883F2B06D9F5
:1022500040230B800420FFF773FB00232B60084B07
:1022600005221A70ADE734702046BDE8F88300BF40
:10227000DE330020E0330020DB330020E433002095
:10228000DD33002007B502AB012103F8010D18462C
:10229000FFF790FF03B05DF804FBFFFF2DE9F0416D
:1022A000114B1B78F3B1114E114B3468114D0127BE
:1022B0001F7098464CB1002763882F70042023803C
:1022C0002146FFF73DFB376009E000F0B7FC01460F
:1022D00020B104202C70FFF733FB00E02F700023A7
:1022E00088F80030BDE8F081DB330020E0330020C7
:1022F000DE330020DD33002038B50E4B1B7803F0B1
:10230000FF05ABB90C4C216831B14B880B80042020
:10231000FFF716FB256038BD00F090FC014620B1A8
:102320000420BDE83840FFF70BBB044B01221A70B4
:1023300038BD00BFDE330020E0330020DD33002055
:10234000FFF712BFFFF7CEBEFFF7F2BEFFF7A6BF43
:10235000FFF718BF0846FFF795BF08461146FFF77D
:1023600029BF7047044B00221A714FF47A711A7317
:10237000024A99601A607047F0330020104C000048
:1023800010B50E4C2378BBB901232370FFF7ECFE88
:1023900008B1FFF7E6FF00F00FFF08B100F089F881
:1023A00001F068FA08B100F00CF900F05DFB08B12B
:1023B00001F0D3FB0023237010BD00BF00340020C8
:1023C00008B50368C9B21B68984708BD08B503681B
:1023D000C9B21B68984708BD08B50368C9B21B6835
:1023E000984708BD08B50368C9B21B68984708BD7F
:1023F0004B0803F1376000F5D830B0FBF1F000F086
:1024000095BC10B54B0803F1376000F5D830144681
:10241000B0FBF1F000F08AFC2046BDE8104000F06F
:10242000E9BC00F011BD084600F042BD084600F0CE
:1024300091BD0846114600F057BD08B5084600F0AA
:10244000AFFD003018BF012008BD08B5084600F0F8
:10245000C9FD003018BF012008BD00F0ADBE00F07E
:10246000E5BE00F0B9BE00F08BBE00F0F7BE00F094
:1024700091BE08B5084600F0DBFD012008BD08B597
:10248000084600F0D5FD012008BD10B508461446E9
:10249000114600F017FE204610BD38B508460D461F
:1024A00001F0AAFE04462146284600F00BFE204615
:1024B00038BD7047044B00221A714FF47A711A73B9
:1024C000024A99601A60704704340020384C0000BA
:1024D00008B50368C9B21B68984708BD08B503680A
:1024E000C9B21B68984708BD08B50368C9B21B6824
:1024F000984708BD08B50368C9B21B68984708BD6E
:102500004B0803F1376000F5D830B0FBF1F000F074
:102510004DBF10B54B0803F1376000F5D8301446B5
:10252000B0FBF1F000F042FF2046BDE8104000F0A3
:10253000A1BF00F0C9BF084601F01EB8084601F06F
:102540006DB80846114601F033B808B5084601F0E9
:102550008DF8003018BF012008BD08B5084601F00D
:10256000A7F8003018BF012008BD01F083B901F0C1
:10257000BBB901F08FB901F061B901F0CDB901F03B
:1025800067B908B5084601F0B1F8012008BD08B5E3
:10259000084601F0ABF8012008BD10B50846144606
:1025A000114601F0EDF8204610BD38B508460D463D
:1025B00001F022FE04462146284601F0E1F82046BB
:1025C00038BD7047044B00221A714FF47A711A73A8
:1025D000024A99601A60704714340020984C000039
:1025E000844641EA000313F003036DD1403A41D31E
:1025F00051F8043B40F8043B51F8043B40F8043BDD
:1026000051F8043B40F8043B51F8043B40F8043BCC
:1026100051F8043B40F8043B51F8043B40F8043BBC
:1026200051F8043B40F8043B51F8043B40F8043BAC
:1026300051F8043B40F8043B51F8043B40F8043B9C
:1026400051F8043B40F8043B51F8043B40F8043B8C
:1026500051F8043B40F8043B51F8043B40F8043B7C
:1026600051F8043B40F8043B51F8043B40F8043B6C
:10267000403ABDD2303211D351F8043B40F8043B0C
:1026800051F8043B40F8043B51F8043B40F8043B4C
:1026900051F8043B40F8043B103AEDD20C3205D31C
:1026A00051F8043B40F8043B043AF9D2043208D014
:1026B000D2071CBF11F8013B00F8013B01D30B8886
:1026C00003806046704700BF082A13D38B078DD064
:1026D00010F003038AD0C3F10403D21ADB071CBF36
:1026E00011F8013B00F8013B80D331F8023B20F8A0
:1026F000023B7BE7043AD9D3013A11F8013B00F8D9
:10270000013BF9D20B7803704B7843708B78837060
:10271000604670477047FFFF08B5054B1A68110601
:1027200044BF02F07F021A60024B1B68984708BD45
:1027300000800B40E88BFF1F174B1A6842F4805251
:102740001A60164A00231370154A1370154A137045
:10275000154A1370154A1370154A40F2133111606F
:102760004FF451715160134AC0F344311170C0F3FA
:10277000471100F01F0051709072937013742C2356
:10278000D3700D4B40226FF44B711A700B444FF411
:1027900000321A60704700BF348004409634002035
:1027A0002D3400209C340020973400202C3400204D
:1027B00008C0044000C0064031E400E0134A9378AA
:1027C00000F0030103F0EC030B43410748BF43F063
:1027D0001003937000F00F03042B0C4903D18B7985
:1027E00043F040038B715379C20603F0EF03074AAD
:1027F00048BF43F0100353719379810603F0EF0350
:1028000048BF43F010039371704700BF00C00640FB
:1028100008B5114B1B68DB0400D408BD0F4B1A78B8
:1028200002F0FF0312B1FFF7ABFDF7E70C4A4FF4DC
:10283000003111600B4A0C49D37040F203120A6058
:102840004A600A4A13700A4A13700A4B1B680BB19C
:1028500001221A7008BD00BF348004402C340020CF
:1028600084E100E000C0064008C004409634002027
:102870002D3400202834002038B50446094B1B783D
:1028800003F0FF05002BF9D120460121FEF75CFC87
:1028900020462946FEF738FC034B53F83420034BFF
:1028A0001A6038BD2C340020BC4A00009834002047
:1028B00010B509B140F080000E4A1378984217D045
:1028C0000D4C2468E40412D503F07F03082B02D1D9
:1028D0000A4B00241C60002900F07F030CBF442138
:1028E0006021082B03D1054B41F440711960107031
:1028F00010BD00BFEC8BFF1F348004400CC00440AF
:102900007047FFFF0D4A38B5146814F480524FF039
:10291000000410D021280A4D0AD80A4A012152F891
:1029200030302B60FEF710FC2B681C70012038BD86
:102930002C60204638BD104638BD00BF34800440AE
:1029400028340020BC4A00000B4B1B6813F4805352
:1029500010D00E28094B09D1094A40F2023111600A
:102960005A7B42F001025A73012070475A7B02F0F1
:10297000FE025A73002070473480044000C00640B5
:1029800004C00440F8B51D4B1B68DA04064633D575
:102990001B4B1B680BB101221A701A4B1C780134B7
:1029A000282C1F4628BF0024174D2B78A34218D18E
:1029B000FFF77AFB40280FDC144A13791B06F3D586
:1029C0002B7813490133282B28BF0023C95CDBB2C5
:1029D000C9B2D1712B70E7E7FF28E5DDFFF7D0FC26
:1029E000E2E70B4BF6B21E550A4B01221A70074B59
:1029F000E4B2AC223C70DA70F8BD00BF3480044011
:102A0000983400209C3400209734002000C00640F9
:102A10002E3400202C34002038B504464518AC4232
:102A200004D014F8010BFFF7ADFFF8E738BDFFFF46
:102A300008B5034B1B7813B1FFF7A2FCF9E708BDFB
:102A40002C340020064A074B1B781078DBB2C0B24A
:102A500083422CBF273000F1FF30C01A704700BFFF
:102A6000973400209C340020054B1878054B1B78C8
:102A7000C0B2DBB2984238BF4030C01A704700BFC6
:102A8000963400202D34002010B5104B10491A78D0
:102A90000B78D2B2DBB29A4214D00133402B28BF5C
:102AA00000230C48DCB2C05C0C700B490968C0B252
:102AB00051B19A4238BF4032D31A1A2B04DC00239A
:102AC0000B7010BD4FF0FF3010BD00BF96340020DA
:102AD0002D3400205634002028340020084B1A786A
:102AE000084B1B78DBB29A4207D00133402B28BF3A
:102AF0000023054AD05CC0B270474FF0FF307047EA
:102B0000963400202D34002056340020054B1A78CE
:102B1000054BD2B21A70054B1B680BB100221A701C
:102B2000704700BF2D340020963400202834002048
:102B300010B5294B1A79920620D5284AD8791378EE
:102B400027490133402B097828BF00238B42C0B2AC
:102B500003D02449C854D9B21170234A116869B10D
:102B6000224A1278D2B2934236BFC2F14002C2EB7F
:102B700003039B18272BC4BF01230B70164AD1787F
:102B8000C9B20C0616D51379180613D5184B174879
:102B90001C780378DBB29C4202D16C23D37009E02D
:102BA0000133282B28BF0023124CE45CDBB2E4B2D3
:102BB000D47103704B060ED5074B1A7912F0400FF3
:102BC000194608D00C4B00221A700C4B1B6803B13D
:102BD0001A702C23CB7010BD00C006409634002024
:102BE0002D34002056340020283400209734002053
:102BF0009C3400202E3400202C34002098340020F7
:102C000010B50023B0FBF2F402FB1400092894BFB6
:102C100030303730C0B2C85420460CB10133F1E730
:102C2000CA18547022469A4206DA885CCC5C8C54EE
:102C3000C8540132013BF6E7084610BD72B60C4A93
:102C40001168B1FA81F30B2B02D962B600207047EC
:102C50004FF00040D84021EA0001116062B60549FA
:102C600048225343C8180022CA504260704700BF30
:102C7000F08BFF1F0084FF1F0C4B4822C31AB3FBCD
:102C8000F2F30B2B11D80A4A127822B1094A1278B2
:102C90000AB1FEF719BE72B6074A4FF0004121FA99
:102CA00003F311681943116062B670470084FF1F77
:102CB000D2330020DB330020F08BFF1F1FB572B62C
:102CC000154B70221A70154A412111700F2102F81C
:102CD000011C80221A701A781206FCD5104B186855
:102CE00062B6104B984298BF0A2301AC98BF584374
:102CF00021460A22FFF784FF0023E15C0A4A29B13A
:102D000002EB430001330A2B4180F6D101335B0013
:102D1000137004B010BD00BF000002400700024065
:102D2000080002407F9698007C8CFF1F234B1A6896
:102D300042F480621A60224A00231370214A137001
:102D4000214A1370214A1370214A1370214B1B78BA
:102D50002BB1152B07D140F213321F4B02E01F4B52
:102D600040F213321A601E4B1B78012B05D0052B45
:102D700007D14FF451721B4B02E01B4B4FF45172C1
:102D80001A601A4BC0F344321A70C0F347125A70DB
:102D90000221042200F01F0098729A70D9745A75AB
:102DA00088221A743C22DA70114B40226FF44A7167
:102DB0001A700B444FF400521A607047348004407C
:102DC00027350020A534002030350020283500208C
:102DD000A4340020E634002018C0044040A0044081
:102DE000928CFF1F1CC0044044A0044000A0064079
:102DF0002DE400E0134A937800F0030103F0EC03A4
:102E00000B43410748BF43F01003937000F00F03DA
:102E1000042B0C4903D18B7943F040038B71537918
:102E2000C20603F0EF03074A48BF43F01003537193
:102E30009379810603F0EF0348BF43F010039371C9
:102E4000704700BF00A0064008B5114B1B685B052A
:102E500000D408BD0F4B1A7802F0FF0312B1FFF740
:102E60008FFAF7E70C4A4FF4005111600B4A0C49F6
:102E7000D37040F203120A604A600A4A13700A4A89
:102E800013700A4B1B680BB101221A7008BD00BFFA
:102E900034800440A434002084E100E000A0064017
:102EA00040A0044027350020A5340020A034002095
:102EB00038B50446094B1B7803F0FF05002BF9D108
:102EC00020460121FEF740F920462946FEF71CF96D
:102ED000034B53F83420034B1A6038BDA434002050
:102EE000BC4A00002C35002010B509B140F080002C
:102EF000144A13789842144622D0134A1268520595
:102F00001DD503F07F03012B04D0052B05D1002232
:102F10000E4B01E00E4B00221A60002900F07F02E8
:102F20000CBF44236023012A05D0052A07D143F4AE
:102F30004073064A02E0064A43F44073136020706F
:102F400010BD00BF928CFF1F348004401CC00440A1
:102F500044A004400E4A1378984218D00D490968DD
:102F6000490513D52BB1152B05D10B4B0021196049
:102F700001E00A490B6028B1152807D140F213314E
:102F8000054B02E0054B40F2133119601070704799
:102F9000E63400203480044018C0044040A00440BF
:102FA0000D4A38B5146814F480624FF0000410D054
:102FB00021280A4D0AD80A4A012152F830302B60E4
:102FC000FEF7C2F82B681C70012038BD2C6020462B
:102FD00038BD104638BD00BF34800440A034002006
:102FE000BC4A00000E4B1B6813F4806316D01228F5
:102FF0000C4B03D140F202310B4A04E0142809D1F2
:103000000A4A40F2023111605A7B42F001025A73BF
:10301000012070475A7B02F0FE025A73002070476D
:103020003480044000A006400CA0044014C00440BA
:10303000F8B51D4B1B685A05064633D51B4B1B685C
:103040000BB101221A701A4B1C780134402C1F4618
:1030500028BF0024174D2B78A34218D1FFF724F87E
:1030600040280FDC144A13791B06F3D52B7813493B
:103070000133402B28BF0023C95CDBB2C9B2D17138
:103080002B70E7E7FF28E5DDFFF77AF9E2E70B4B66
:10309000F6B21E550A4B01221A70074BE4B2BC224D
:1030A0003C70DA70F8BD00BF348004402C3500203D
:1030B000303500202835002000A00640A63400202E
:1030C000A4340020274B1B685A052DE9F04707461A
:1030D0008A4644D5244B1B680BB101221A703D4629
:1030E00007EB0A039D4237D2DFF890801F4E98F815
:1030F000004096F800900134402C28BF00245FFA6D
:1031000089F9A1451DD11A4BBC22DA70FEF7CCFF1C
:1031100040280FDC164A13791B060FD53378154962
:103120000133402B28BF0023C95CDBB2C9B2D17187
:10313000337003E0FF2801DDFFF722F933784B45B8
:10314000E4D00C4B15F8012B1A550B4B0122E4B2BD
:103150001A7088F80040C3E7054BBC22DA70BDE85E
:10316000F08700BF348004402C3500202835002033
:1031700000A00640A6340020A434002030350020F2
:1031800008B5034B1B7813B1FFF7FAF8F9E708BD50
:10319000A4340020064A074B1B781078DBB2C0B27B
:1031A00083422CBF3F3000F1FF30C01A704700BF90
:1031B0002835002030350020054B1878054B1B784A
:1031C000C0B2DBB2984238BF4030C01A704700BF6F
:1031D00027350020A534002010B5104B10491A786F
:1031E0000B78D2B2DBB29A4214D00133402B28BF05
:1031F00000230C48DCB2C05C0C700B490968C0B2FB
:1032000051B19A4238BF4032D31A1A2B04DC002342
:103210000B7010BD4FF0FF3010BD00BF27350020F0
:10322000A5340020E7340020A0340020084B1A7891
:10323000084B1B78DBB29A4207D00133402B28BFE2
:103240000023054AD05CC0B270474FF0FF30704792
:1032500027350020A5340020E73400200C4B1B68E4
:103260005B0514D50B4BDA7802F0CB02DA70402202
:103270005A74DA7842F03402DA70074B1A78074B46
:10328000D2B21A70064B1B680BB100221A7070473D
:103290003480044000A00640A534002027350020DB
:1032A000A034002030B5374B1A7912F0300F31D0EE
:1032B00072B69A7D02F0FF0022B9DA7940225A7480
:1032C00062B627E062B6304A304913780978DBB23B
:1032D000C9B214462B4AD5795A1C402A28BF00226D
:1032E0008A42EDB202D02A4B9D541346421E12F080
:1032F000FF00EFD1DAB22270264A126852B18B4237
:1033000036BFC1F14001C1EB03035B18272BC4BFDB
:10331000012313701B4BD978C9B20C0620D51B7939
:1033200018061DD51C4B1D4A1D781378EDB2DBB273
:103330001046AB420CD0134A0133402B1479184C81
:1033400028BF0023E45CE4B2D471127D072AF0D9CF
:10335000DBB203700B4B1A79120644BF7C22DA7081
:103360004B060ED5074B1A7912F0400F194608D0BC
:103370000C4B00221A700C4B1B6803B11A703C23D3
:10338000CB7030BD00A0064027350020A5340020BA
:10339000E7340020A03400203035002028350020FC
:1033A000A6340020A43400202C350020234B1A68BA
:1033B00042F400621A60224A00231370214A1370FB
:1033C000214A1370214A1370214A1370214B1B7834
:1033D000092B05D01A2B07D140F213321E4B02E005
:1033E0001E4B40F213321A601D4B1B780A2B05D07E
:1033F0001F2B07D14FF451721A4B02E01A4B4FF4B6
:1034000051721A60194BC0F344321A70C0F347125C
:103410005A7000F01F000422022198729A70D97429
:103420005A7588221A743C22DA70114B40221A70A5
:10343000A3F22B334FF400421A60704734800440EB
:10344000A235002039350020A8350020A335002002
:1034500038350020938CFF1F04D004400CB004408A
:10346000948CFF1F00D0044010B0044000B0064010
:103470002FE400E0134A937800F0030103F0EC031B
:103480000B43410748BF43F01003937000F00F0354
:10349000042B0C4903D18B7943F040038B71537992
:1034A000C20603F0EF03074A48BF43F0100353710D
:1034B0009379810603F0EF0348BF43F01003937143
:1034C000704700BF00B0064008B51E4B1B681B05C7
:1034D00000D408BD1C4B1B7803F0FF0213B1FEF7AC
:1034E0004FFFF7E7194B4FF400411960184BDA70A2
:1034F000184B1B78092B05D01A2B07D140F2031269
:10350000154B02E0154B40F203121A60144B1B7866
:1035100003F07F030A2B05D01F2B07D140F20312C3
:10352000104B02E0104B40F203121A600F4A0023C6
:1035300013700F4A13700F4B1B680BB101221A70E6
:1035400008BD00BF348004403835002084E100E02D
:1035500000B00640938CFF1F04D004400CB0044020
:10356000948CFF1F00D0044010B00440A23500200E
:10357000393500203435002038B50446094B1B7816
:1035800003F0FF05002BF9D120460121FDF7DCFDFA
:1035900020462946FDF7B8FD034B53F83420034B72
:1035A0001A6038BD38350020BC4A0000A435002020
:1035B00010B509B140F08000144A137898421446BF
:1035C00022D0134A126812051DD503F07F030A2B7F
:1035D00004D01F2B05D100220E4B01E00E4B002220
:1035E0001A60002900F07F020CBF442360230A2ADE
:1035F00005D01F2A07D143F44073064A02E0064A69
:1036000043F440731360207010BD00BF948CFF1F03
:103610003480044000D0044010B004400F4A1378B6
:1036200098421AD00E490968090515D5092B04D00E
:103630001A2B05D100210B4B01E00B4B0021196027
:10364000092805D01A2807D140F21331054B02E0B2
:10365000054B40F21331196010707047938CFF1FB7
:103660003480044004D004400CB004400D4A38B506
:10367000146814F400624FF0000410D021280A4DA1
:103680000AD80A4A012152F830302B60FDF75CFD60
:103690002B681C70012038BD2C60204638BD1046B8
:1036A00038BD00BF3480044034350020BC4A0000DF
:1036B0000B4B1B6813F4006310D01728094B09D17A
:1036C000094A40F2023111605A7B42F001025A73FA
:1036D000012070475A7B02F0FE025A7300207047A7
:1036E0003480044000B0064008B00440F8B51D4BDB
:1036F0001B681A05064633D51B4B1B680BB101220C
:103700001A701A4B1C780134282C1F4628BF00243D
:10371000174D2B78A34218D1FEF7C6FC40280FDCCA
:10372000144A13791B06F3D52B7813490133282B40
:1037300028BF0023C95CDBB2C9B2D1712B70E7E7A7
:10374000FF28E5DDFEF71CFEE2E70B4BF6B21E5547
:103750000A4B01221A70074BE4B2BC223C70DA70AB
:10376000F8BD00BF34800440A4350020A8350020F7
:10377000A335002000B006403A350020383500203F
:10378000274B1B681A052DE9F04707468A4644D5A2
:10379000244B1B680BB101221A703D4607EB0A034C
:1037A0009D4237D2DFF890801F4E98F8004096F87F
:1037B00000900134282C28BF00245FFA89F9A14524
:1037C0001DD11A4BBC22DA70FEF76EFC40280FDCCC
:1037D000164A13791B060FD5337815490133282B68
:1037E00028BF0023C95CDBB2C9B2D171337003E0DA
:1037F000FF2801DDFEF7C4FD33784B45E4D00C4BC8
:1038000015F8012B1A550B4B0122E4B21A7088F8F7
:103810000040C3E7054BBC22DA70BDE8F08700BF6B
:1038200034800440A4350020A335002000B00640B9
:103830003A35002038350020A835002008B5034B64
:103840001B7813B1FEF79CFDF9E708BD3835002061
:10385000064A074B1B781078DBB2C0B283422CBFFC
:10386000273000F1FF30C01A704700BFA335002099
:10387000A8350020054B1878054B1B78C0B2DBB289
:10388000984238BF4030C01A704700BFA2350020B0
:103890003935002010B5104B10491A780B78D2B288
:1038A000DBB29A4214D00133402B28BF00230C48CE
:1038B000DCB2C05C0C700B490968C0B251B19A42CD
:1038C00038BF4032D31A1A2B04DC00230B7010BD12
:1038D0004FF0FF3010BD00BFA23500203935002069
:1038E0006235002034350020084B1A78084B1B78CD
:1038F000DBB29A4207D00133402B28BF0023054A90
:10390000D05CC0B270474FF0FF307047A235002046
:1039100039350020623500200C4B1B681B0514D57F
:103920000B4BDA7802F0CB02DA7040225A74DA7864
:1039300042F03402DA70074B1A78074BD2B21A7091
:10394000064B1B680BB100221A707047348004408C
:1039500000B0064039350020A23500203435002063
:1039600030B5374B1A7912F0300F31D072B69A7DDC
:1039700002F0FF0022B9DA7940225A7462B627E0D9
:1039800062B6304A304913780978DBB2C9B21446BE
:103990002B4AD5795A1C402A28BF00228A42EDB210
:1039A00002D02A4B9D541346421E12F0FF00EFD165
:1039B000DAB22270264A126852B18B4236BFC1F188
:1039C0004001C1EB03035B18272BC4BF0123137015
:1039D0001B4BD978C9B20C0620D51B7918061DD50A
:1039E0001C4B1D4A1D781378EDB2DBB21046AB427A
:1039F0000CD0134A0133282B1479184C28BF00230C
:103A0000E45CE4B2D471127D072AF0D9DBB2037012
:103A10000B4B1A79120644BF7C22DA704B060ED586
:103A2000074B1A7912F0400F194608D00C4B0022B0
:103A30001A700C4B1B6803B11A703C23CB7030BD5D
:103A400000B00640A2350020393500206235002044
:103A500034350020A8350020A33500203A35002059
:103A600038350020A435002008B50368C9B21B68AA
:103A7000984708BD08B50368C9B21B68984708BDD8
:103A800008B50368C9B21B68984708BD08B5036844
:103A9000C9B21B68984708BD4B0803F1B76000F531
:103AA0005840B0FBF1F0FEF747BE10B54B0803F1EC
:103AB000B76000F558401446B0FBF1F0FEF73CFE4D
:103AC0002046BDE81040FEF779BEFEF7A1BE0846CD
:103AD000FEF7D2BE0846FEF713BF08461146FEF7B2
:103AE000E7BE08B50846FEF70DFF003018BF0120FD
:103AF00008BD08B50846FEF727FF003018BF0120B3
:103B000008BDFEF7B1BFFEF7E9BFFEF7BDBFFEF788
:103B10008FBFFEF7FBBFFEF795BF08B50846FEF75F
:103B200031FF012008BD08B50846FEF72BFF012034
:103B300008BD10B5084614461146FEF76DFF204635
:103B400010BD38B508460D4600F056FB0446214628
:103B50002846FEF761FF204638BD7047044B00221F
:103B60001A714FF47A711A73024A99601A60704799
:103B7000AC350020504D000070B50F4E0F4D761B38
:103B8000B61007D0043D0024013455F8043F98478F
:103B9000A642F9D10A4E0B4D761B01F009F9B61079
:103BA00008D0043D0024013455F8043F9847A6424C
:103BB000F9D170BD70BD00BFBC4D0000BC4D000010
:103BC000D84D0000BC4D0000024B0146186800F0C3
:103BD00003B800BFC090FF1F2DE9F04F01F10B05A6
:103BE000162D83B0064627D935F0070527D4A942FC
:103BF00025D8304600F08CFAB5F5FC7F26D2C14FAF
:103C00004FEAD50C07EBCC03DC689C4200F0D28174
:103C10006368E268A16823F00303234430465D68CB
:103C2000CA6045F0010591605D6000F073FA0834E8
:103C3000204603B0BDE8F08F1025A942D9D9002451
:103C40000C232046336003B0BDE8F08F5FEA552CAB
:103C500000F08A80BCF1040F00F260814FEA951CED
:103C60000CF1380C4FEA4C01A64F07EB8101CC68F0
:103C7000A14205D10CE0002B7ADAE468A14207D01A
:103C8000626822F00302531B0F2BF4DD0CF1FF3CA2
:103C90000CF1010C9B4B3C6903F1080E744500F0DC
:103CA0007E81616821F003014A1B0F2A00F36481C1
:103CB000002AC3F814E0C3F810E06ADAB1F5007F17
:103CC00080F03A81C90803EBC1004FEAA1085A68A5
:103CD0008168A1604FF0010909FA08F848EA020278
:103CE000E0605A608460CC604FEAAC0301209840E9
:103CF00090425BD8024206D12CF0030C40000242F5
:103D00000CF1040CFAD007EBCC084446E146E3681A
:103D10009C4207D145E1002A80F25681DB689C4233
:103D200000F03F81596821F003014A1B0F2AF2DDA0
:103D30001C46D3F80CC054F8088F591945F00109F6
:103D400042F00105C3F804903046C8F80CC0CCF826
:103D5000088079613961C1F80CE0C1F808E04D6074
:103D60008A5000F0D7F963E77E214FF03F0C7BE7E4
:103D70002244E3685068A16840F00105CB603046FA
:103D80009960556000F0C6F90834204603B0BDE8DC
:103D9000F08F214430464B6843F001034B6000F044
:103DA000B9F90834204603B0BDE8F08FBC686368F9
:103DB00023F00309A94504D3C5EB09030F2B00F336
:103DC0009180514B514A19681368013305EB010A80
:103DD00004EB090B00F061810AF5805A0AF10F0A21
:103DE0002AF47F6A2AF00F0A30465146019200F009
:103DF00093F9B0F1FF3F8046019A00F000818345BE
:103E000000F2FA80DFF810C1DCF80030C3455344FB
:103E1000CCF8003000F04A8112683C4901321BBFE7
:103E2000CBEB080B5B44C1F80080CCF8003018F0F5
:103E3000070300F01381C3F10802C3F580539044D7
:103E40000833C244CAF30B0ACAEB030A5146304690
:103E5000CDF804C000F060F9431CDDF804C000F0A8
:103E60003581C8EB0002524442F00102DCF8003018
:103E7000C7F808805344BC42C8F80420CCF800308E
:103E8000DFF894A015D0B9F10F0F40F2EA80616815
:103E9000A9F10C0222F0070201F0010EA118052081
:103EA00042EA0E0E0F2AC4F804E04860886000F26F
:103EB0001181174ABC6811688B4288BF1360154A8C
:103EC00011688B4288BF1360626822F0030295423A
:103ED000C5EB020301D80F2B04DC304600F01AF9C1
:103EE0000024A5E6621943F0010345F00105656071
:103EF0003046BA60536000F00DF90834204603B034
:103F0000BDE8F08FC490FF1FC4350020D094FF1F80
:103F1000C0350020BC350020C8350020BCF1140F8E
:103F200061D9BCF1540F00F28F804FEA153C0CF1BF
:103F30006E0C4FEA4C0197E64B0A042B58D9142B10
:103F400000F2AE8003F15B02500007EB8000DFF867
:103F5000BC818368834200F08A805A6822F00302A1
:103F6000914202D29B689842F7D1D9687A68E160A1
:103F7000A3608C60DC60B7E6611942F0010745F090
:103F800001056560304659611961C1F80CE0C1F85E
:103F900008E04F608A50083400F0BCF848E65A68E0
:103FA000A2E609F1010919F0030F04F108047FF4F6
:103FB000AEAE2DE004F108036469A34208BF0CF122
:103FC000020C3FF467AE23E619441C464868DB68E0
:103FD00054F8082F40F001054D603046D3609A60D8
:103FE00000F098F824E60CF15B0C4FEA4C013BE63C
:103FF0008A0938325000A8E7BC423FF403AFBC68DE
:10400000626822F0030262E7D8F8008098457BD10D
:104010001CF0030FA8F108030CF1FF3CF4D17B68FE
:1040200023EA00037B60400098423FF6BFAE0028C1
:104030003FF4BCAE0342CC467FF465AE4000034281
:104040000CF1040CFAD05EE6BCF5AA7F1AD84FEA50
:10405000D53C0CF1770C4FEA4C0105E64FF4805348
:10406000EFE60123C8F80430444600222FE7911000
:104070000120D8F8042000FA01F10A43C8F804200E
:10408000194674E740F254539C451BD84FEA954CAF
:104090000CF17C0C4FEA4C01E6E50AF1100AA3E6AC
:1040A000542B1FD80A0B6E3250004EE7CBF30B0196
:1040B00000297FF4B1AE0AEB0901BA6841F00101B1
:1040C0005160F6E6FC214FF07E0CCDE501224FF069
:1040D000000ACBE604F10801304600F033F9DAF8C3
:1040E0000030E6E6B3F5AA7F03D8CA0B773250005A
:1040F0002BE740F25452934203D88A0C7C32500092
:1041000023E7FC207E2220E77B688CE7C490FF1F1A
:10411000704700BF704700BF38B5074C0023054605
:1041200008462360FDF7B8FF431C00D038BD236864
:10413000002BFBD02B6038BD0436002080EA010242
:10414000844612F0030F4FD111F0030F32D14DF816
:10415000044D11F0040F51F8043B0BD0A3F10132D0
:104160009A4312F0803F04BF4CF8043B51F8043BE3
:1041700016D100BF51F8044BA3F101329A4312F05B
:10418000803FA4F101320BD14CF8043BA24312F062
:10419000803F04BF51F8043B4CF8044BEAD023465F
:1041A0000CF8013B13F0FF0F4FEA3323F8D15DF811
:1041B000044B704711F0010F06D011F8012B0CF8D9
:1041C000012B002A08BF704711F0020FBFD031F851
:1041D000022B12F0FF0F16BF2CF8022B8CF80020D8
:1041E00012F47F4FB3D1704711F8012B0CF8012B5B
:1041F000002AF9D1704700BF20F0030110F003003E
:10420000C0F1000051F8043B00F1040C4FEACC0C63
:104210006FF000021CBF22FA0CF213434FF0010CA6
:104220004CEA0C2C4CEA0C4CA3EB0C0222EA0302E5
:1042300012EACC1204BF51F8043B0430F4D013F05E
:10424000FF0F1FBF013013F47F4F013013F47F0FB6
:1042500018BF0130704700BF024B13B1024800F095
:1042600005B87047000000007942000001460020B8
:104270000246034600F034B938B5094D094C641BB9
:10428000A41018BF05EB840505D0013C55F8043D8A
:104290009847002CF9D1BDE8384000F09DBD00BF23
:1042A0000000000000000000F8B5234D0F46044652
:1042B000FFF72EFFAB685E6826F00306F11B01F6E0
:1042C000EF7121F47F6121F00F01A1F58057B7F55F
:1042D000805F07DB20460021FFF71EFFAB683344F9
:1042E000984204D02046FFF715FF0020F8BD204675
:1042F0007942FFF711FF01300DD0104BAA68196801
:10430000F61B46F001062046C91B56601960FFF7F0
:1043100001FF0120F8BD20460021FFF7FDFEAB683C
:10432000C21A0F2ADEDD064D04492D6842F0010253
:10433000401B5A600860D5E7C490FF1FC8350020B5
:10434000D094FF1F2DE9F0410D460646002955D0B7
:10435000FFF7DEFE55F8041CDFF874C121F00103FD
:10436000A5F10804E218DCF808005768904227F02D
:10437000030769D011F00101576032D00021D01934
:104380004068C00706D43B44906800294ED0D268EC
:10439000C260906043F001026260E350E1B9B3F59E
:1043A000007F2DD35A0A042A6AD898093830410070
:1043B0000CEB810C4649DCF80820624566D0516858
:1043C00021F003018B4202D292689445F7D1D36861
:1043D000E360A2609C60D4603046BDE8F041FFF726
:1043E00099BE55F8085C641B0CF10808A0684045AC
:1043F0002B4443D0E568C560A860C0E7BDE8F08104
:10440000DB080CEBC3020125DCF804009168A16015
:104410009B1005FA03F31843E260CCF804009460A3
:104420003046CC60BDE8F041FFF774BE294DA8428C
:10443000ADD143F00102CCF81440CCF81040E0605C
:10444000A0606260E350C7E71F44CB0707D455F86C
:10445000083CE41A1F44A268E368D3609A601E4BCC
:104460001B6847F001029F426260CCF80840B3D35A
:104470001A4B30461968FFF717FFADE701217EE7B9
:10448000142A0CD802F15B00410091E74B688010C0
:10449000012505FA00F003434B60134698E7542AC0
:1044A00003D8180B6E30410082E7B2F5AA7F03D81B
:1044B000D80B773041007BE740F254518A4203D851
:1044C000980C7C30410073E7FC217E2070E700BF30
:1044D000C490FF1FCC90FF1FCC94FF1FC435002059
:1044E000F0B5274C2668D6F8484185B00746002C21
:1044F00041D065681F2D1EDD224818B94FF0FF30EE
:1045000005B0F0BD4FF4C870039102920193FFF71C
:104510005BFB0399029A019B04460028EED0D6F873
:1045200048512560002060600546C6F84841C4F83F
:104530008801C4F88C013FB9AB1C002001356560CF
:1045400044F8231005B0F0BD04EB85004FF0010CDA
:10455000C0F88820D4F888610CFA05F21643022FBF
:10456000C4F88861C0F80831E6D1D4F88C311A4318
:10457000C4F88C21E0E706F5A674C6F84841B8E710
:10458000AC4D0000C93B000080F0004002E000BFDD
:1045900081F0004142001FBF5FEA410392EA030F2E
:1045A0007FEA226C7FEA236C6AD04FEA1262D2EB78
:1045B0001363C1BFD218414048404140B8BF5B427D
:1045C000192B88BF704710F0004F40F4000020F016
:1045D0007F4018BF404211F0004F41F4000121F02C
:1045E0007F4118BF494292EA030F3FD0A2F1010276
:1045F00041FA03FC10EB0C00C3F1200301FA03F1B4
:1046000000F0004302D5494260EB4000B0F5000FD6
:1046100013D3B0F1807F06D340084FEA310102F195
:104620000102FE2A51D2B1F1004F40EBC25008BF47
:1046300020F0010040EA03007047490040EB000011
:1046400010F4000FA2F10102EDD1B0FA80FCACF140
:10465000080CB2EB0C0200FA0CF0AABF00EBC2503F
:1046600052421843BCBFD0401843704792F0000F2D
:1046700081F4000106BF80F400000132013BB5E780
:104680004FEA41037FEA226C18BF7FEA236C21D0F6
:1046900092EA030F04D092F0000F08BF084670475B
:1046A00090EA010F1CBF0020704712F07F4F04D129
:1046B000400028BF40F00040704712F100723CBF3C
:1046C00000F50000704700F0004343F0FE4040F466
:1046D000000070477FEA226216BF08467FEA236324
:1046E0000146420206BF5FEA412390EA010F40F40F
:1046F000800070474FF0000304E000BF10F000435B
:1047000048BF40425FEA000C08BF704743F0964341
:1047100001464FF000001CE050EA010208BF70475C
:104720004FF000030AE000BF50EA010208BF7047E3
:1047300011F0004302D5404261EB41015FEA010CF8
:1047400002BF84460146002043F0B64308BFA3F1F0
:104750008053A3F50003BCFA8CF2083AA3EBC253D2
:1047600010DB01FA02FC634400FA02FCC2F12002F1
:10477000BCF1004F20FA02F243EB020008BF20F028
:104780000100704702F1200201FA02FCC2F120028E
:1047900050EA4C0021FA02F243EB020008BF20EA83
:1047A000DC7070474FF0FF0C1CEAD0521EBF1CEAB1
:1047B000D15392EA0C0F93EA0C0F6FD01A4480EA9F
:1047C000010C400218BF5FEA41211ED04FF0006388
:1047D00043EA501043EA5111A0FB01310CF00040B4
:1047E000B1F5000F3EBF490041EAD3715B0040EADA
:1047F000010062F17F02FD2A1DD8B3F1004F40EBAA
:10480000C25008BF20F00100704790F0000F0CF07C
:10481000004C08BF49024CEA502040EA51207F3A40
:10482000C2BFD2F1FF0340EAC250704740F400001B
:104830004FF00003013A5DDC12F1190FDCBF00F00C
:1048400000407047C2F10002410021FA02F1C2F1BA
:10485000200200FA02FC5FEA310040F1000053EA56
:104860004C0308BF20EADC70704792F0000F00F0A4
:10487000004C02BF400010F4000F013AF9D040EAAA
:104880000C0093F0000F01F0004C02BF490011F43E
:10489000000F013BF9D041EA0C018FE70CEAD1533C
:1048A00092EA0C0F18BF93EA0C0F0AD030F0004CBC
:1048B00018BF31F0004CD8D180EA010000F0004070
:1048C000704790F0000F17BF90F0004F084691F02E
:1048D000000F91F0004F14D092EA0C0F01D1420268
:1048E0000FD193EA0C0F03D14B0218BF084608D131
:1048F00080EA010000F0004040F0FE4040F400007B
:10490000704740F0FE4040F4400070474FF0FF0C0D
:104910001CEAD0521EBF1CEAD15392EA0C0F93EA54
:104920000C0F69D0A2EB030280EA010C49024FEAA6
:10493000402037D04FF0805343EA111143EA10135F
:104940000CF000408B4238BF5B0042F17D024FF417
:10495000000C8B4224BF5B1A40EA0C00B3EB510FF2
:1049600024BFA3EB510340EA5C00B3EB910F24BFDB
:10497000A3EB910340EA9C00B3EBD10F24BFA3EB60
:10498000D10340EADC001B0118BF5FEA1C1CE0D128
:10499000FD2A3FF650AF8B4240EBC25008BF20F0DB
:1049A000010070470CF0004C4CEA50207F32C2BF2F
:1049B000D2F1FF0340EAC250704740F400004FF0CC
:1049C0000003013A37E792F0000F00F0004C02BFFD
:1049D000400010F4000F013AF9D040EA0C0093F0C7
:1049E000000F01F0004C02BF490011F4000F013B21
:1049F000F9D041EA0C0195E70CEAD15392EA0C0F89
:104A000008D142027FF47DAF93EA0C0F7FF470AFC0
:104A1000084676E793EA0C0F04D14B023FF44CAF03
:104A200008466EE730F0004C18BF31F0004CCAD198
:104A300030F000427FF45CAF31F000437FF43CAFD4
:104A40005FE700BF4FEA4002B2F1FE4F0FD34FF0D5
:104A50009E03B3EB12620DD94FEA002343F00043EB
:104A600010F0004F23FA02F018BF404270474FF099
:104A70000000704712F1610F01D1420205D110F020
:104A8000004008BF6FF0004070474FF000007047D3
:104A9000556E61626C6520746F20616C6C6F636130
:104AA0007465206D656D6F7279004C494E4B310015
:104AB0004C494E4B32004C494E4B33004008FE43AC
:104AC00040A004404408FE4344A004400018FE43B4
:104AD00000C004403000FE43309004403400FE43E8
:104AE000349004401C18FE431CC004401018FE43C0
:104AF00010C004400818FE4308C004400C18FE43D0
:104B00000CC004400C10FE430CB004401010FE43D7
:104B100010B004401810FE4318B004401C10FE43AF
:104B20001CB004401410FE4314B004400418FE43AB
:104B300004C004400010FE4300B004400008FE43DF
:104B400000A004400408FE4304A004400C08FE43F7
:104B50000CA004400808FE4308A004401418FE43BB
:104B600014C004401818FE4318C004400410FE434B
:104B700004B004400810FE4308B004401400FE4393
:104B8000149004404C08FE434CA004400420FE4313
:104B900004D004402410FE4324B004402010FE43FF
:104BA00020B004402810FE4328B004402C10FE43DF
:104BB0002CB004400020FE4300D004404808FE43CF
:104BC00048A004401000FE4310900440050E080960
:104BD0000D0C06070F0400130393050E08090D0CB6
:104BE00006070F04FFFFC585848687C4FFFF0013F7
:104BF00003931A9217FF6FF07F030370037813F08B
:104C0000800FFBD07047FFFF000000000000000095
:104C1000552300005B2300004123000045230000D2
:104C2000492300004D230000512300000000000034
:104C30000000000000000000732400008B2400002E
:104C40005B240000632400005F2400006724000050
:104C5000F123000003240000232400002724000087
:104C60002D240000332400003B2400004B240000CE
:104C70006B2400006F240000C1230000CD2300003E
:104C8000D9230000E52300009B2400007F240000BE
:104C90000000000000000000832500009B250000AC
:104CA0006B250000732500006F25000077250000AC
:104CB00001250000132500003325000037250000E2
:104CC0003D250000432500004B2500005B2500002A
:104CD0007B2500007F250000D1240000DD2400009A
:104CE000E9240000F5240000AB2500008F2500001A
:104CF0000015191500010000F48BFF1F12000000C1
:104D0000000200001E8CFF1F430000000003000093
:104D1000788CFF1F0000000001030904068CFF1FB0
:104D20000000000002030904628CFF1F0000000065
:104D3000030309047C8CFF1F00000000000000003A
:104D40000000000000000000000000000000000063
:104D50001B3B0000333B0000033B00000B3B00000B
:104D6000073B00000F3B0000993A0000AB3A0000FF
:104D7000CB3A0000CF3A0000D53A0000DB3A000001
:104D8000E33A0000F33A0000133B0000173B000039
:104D9000693A0000753A0000813A00008D3A00003F
:104DA000433B0000273B000043000000988CFF1F9E
:104DB000F8B500BFF8BC08BC9E46704759420000D9
:104DC000350400008510000065230000B5240000B4
:084DD000C52500005D3B000059
:044DD800F8B500BF6B
:104DDC0006000000010000000800000001000000B7
:104DEC000A00000002000000110000001200000088
:104DFC001300000014000000010000001800000067
:104E0C001500000016000000170000000000000054
:104E1C000000000000000000000000000000000086
:104E2C000000000000000000000000000000000076
:104E3C000000000000000000000000000000000066
:104E4C000000000000000000000000000000000056
:104E5C000000000000000000000000000100000045
:104E6C00170000000500000000000000CDCCCC3D78
:104E7C0000000000CDCCCC3D010000000000000083
:104E8C000000000000000000000000000000000016
:104E9C000000000000000000000000000000000006
:104EAC0000000000000000000000000002000000F4
:104EBC00150000000400000001000000CDCCCC3D2A
:104ECC0000000000CDCCCC3D000000000000000034
:104EDC0000000000000000000000000000000000C6
:104EEC0000000000000000000000000000000000B6
:104EFC0000000000000000000000000003000000A3
:104F0C00160000000300000002000000CDCCCC3DD8
:104F1C0000000000CDCCCC3D0100000000000000E2
:104F2C000000000000000000000000000000000075
:104F3C000000000000000000000000000000000065
:104F4C000000000000000000000000000400000051
:104F5C00170000000500000000000000CDCCCC3D87
:104F6C0000000000CDCCCC3D010000000000000092
:104F7C000000000000000000000000000000000025
:104F8C000000000000000000000000000000000015
:104F9C000000000000000000000000000500000000
:104FAC00150000000400000001000000CDCCCC3D39
:104FBC0000000000CDCCCC3D000000000000000043
:104FCC0000000000000000000000000000000000D5
:104FDC0000000000000000000000000000000000C5
:104FEC0000000000000000000000000006000000AF
:104FFC00160000000300000002000000CDCCCC3DE8
:10500C0000000000CDCCCC3D0100000000000000F1
:10501C000000000000000000000000000000000084
:10502C000000000000000000000000000000000074
:10503C00000000000000000000000000070000005D
:10504C00170000000500000000000000CDCCCC3D96
:10505C0000000000CDCCCC3D0100000000000000A1
:10506C000000000000000000000000000000000034
:10507C000000000000000000000000000000000024
:10508C00000000000000000000000000080000000C
:10509C00150000000400000001000000CDCCCC3D48
:1050AC0000000000CDCCCC3D000000000000000052
:1050BC0000000000000000000000000000000000E4
:1050CC0000000000000000000000000000000000D4
:1050DC0000000000000000000000000009000000BB
:1050EC00160000000300000002000000CDCCCC3DF7
:1050FC0000000000CDCCCC3D010000000000000001
:10510C000000000000000000000000000000000093
:10511C000000000000000000000000000000000083
:10512C000000000000000000000000000A00000069
:10513C00170000000500000000000000CDCCCC3DA5
:10514C0000000000CDCCCC3D0100000000000000B0
:10515C000000000000000000000000000000000043
:10516C000000000000000000000000000000000033
:10517C000000000000000000000000000B00000018
:10518C00150000000400000001000000CDCCCC3D57
:10519C0000000000CDCCCC3D000000000000000061
:1051AC0000000000000000000000000000000000F3
:1051BC0000000000000000000000000000000000E3
:1051CC000000000000000000000000000C000000C7
:1051DC00160000000300000002000000CDCCCC3D06
:1051EC0000000000CDCCCC3D010000000000000010
:1051FC0000000000000000000000000000000000A3
:10520C000000000000000000000000000000000092
:10521C000000000000000000000000000900000079
:10522C000B0000000C0000001A000000050000003C
:10523C0007000000E50000000D0000000E0000005B
:10524C000F0000001000000003000000040000002C
:10525C00080A04000836002015270000080000008A
:10526C00FFFFFFFF1201010102000040C016830482
:10527C0000020102030118035400650065006E0072
:10528C00730079006400750069006E006F000902FC
:10529C004300020100C032090400000102020100B7
:1052AC000524001001052401010104240206052433
:1052BC000600010705820310004009040100020AE0
:1052CC0000000007050302400000070584024000AF
:1052DC0000001603550053004200200053006500E7
:1052EC007200690061006C00040309040C030000E7
:1052FC0000000000000000000000000000000000A2
:10530C00000001090A00000000000000848FFF1F4C
:10531C00EC8FFF1F5490FF1F0000000000000000E6
:10532C000000000000000000000000000000000071
:10533C00000000000000000000000000A84D00006C
:10534C000000000000000000000000000000000051
:10535C000000000000000000000000000000000041
:10536C000000000000000000000000000000000031
:10537C000000000000000000000000000000000021
:10538C000000000000000000000000000000000011
:10539C000000000000000000000000000000000001
:1053AC0000000000000000000000000000000000F1
:1053BC0001000000000000000E33CDAB34126DE68E
:1053CC00ECDE05000B0000000000000000000000F7
:1053DC0000000000000000000000000000000000C1
:1053EC0000000000000000000000000000000000B1
:1053FC0000000000000000000000000000000000A1
:10540C000000000000000000000000000000000090
:10573C00988CFF1F0000000000000000C490FF1FA9
:10574C00C490FF1FCC90FF1FCC90FF1FD490FF1F65
:10575C00D490FF1FDC90FF1FDC90FF1FE490FF1F15
:10576C00E490FF1FEC90FF1FEC90FF1FF490FF1FC5
:10577C00F490FF1FFC90FF1FFC90FF1F0491FF1F74
:10578C000491FF1F0C91FF1F0C91FF1F1491FF1F21
:10579C001491FF1F1C91FF1F1C91FF1F2491FF1FD1
:1057AC002491FF1F2C91FF1F2C91FF1F3491FF1F81
:1057BC003491FF1F3C91FF1F3C91FF1F4491FF1F31
:1057CC004491FF1F4C91FF1F4C91FF1F5491FF1FE1
:1057DC005491FF1F5C91FF1F5C91FF1F6491FF1F91
:1057EC006491FF1F6C91FF1F6C91FF1F7491FF1F41
:1057FC007491FF1F7C91FF1F7C91FF1F8491FF1FF1
:10580C008491FF1F8C91FF1F8C91FF1F9491FF1FA0
:10581C009491FF1F9C91FF1F9C91FF1FA491FF1F50
:10582C00A491FF1FAC91FF1FAC91FF1FB491FF1F00
:10583C00B491FF1FBC91FF1FBC91FF1FC491FF1FB0
:10584C00C491FF1FCC91FF1FCC91FF1FD491FF1F60
:10585C00D491FF1FDC91FF1FDC91FF1FE491FF1F10
:10586C00E491FF1FEC91FF1FEC91FF1FF491FF1FC0
:10587C00F491FF1FFC91FF1FFC91FF1F0492FF1F6F
:10588C000492FF1F0C92FF1F0C92FF1F1492FF1F1C
:10589C001492FF1F1C92FF1F1C92FF1F2492FF1FCC
:1058AC002492FF1F2C92FF1F2C92FF1F3492FF1F7C
:1058BC003492FF1F3C92FF1F3C92FF1F4492FF1F2C
:1058CC004492FF1F4C92FF1F4C92FF1F5492FF1FDC
:1058DC005492FF1F5C92FF1F5C92FF1F6492FF1F8C
:1058EC006492FF1F6C92FF1F6C92FF1F7492FF1F3C
:1058FC007492FF1F7C92FF1F7C92FF1F8492FF1FEC
:10590C008492FF1F8C92FF1F8C92FF1F9492FF1F9B
:10591C009492FF1F9C92FF1F9C92FF1FA492FF1F4B
:10592C00A492FF1FAC92FF1FAC92FF1FB492FF1FFB
:10593C00B492FF1FBC92FF1FBC92FF1FC492FF1FAB
:10594C00C492FF1FCC92FF1FCC92FF1FD492FF1F5B
:10595C00D492FF1FDC92FF1FDC92FF1FE492FF1F0B
:10596C00E492FF1FEC92FF1FEC92FF1FF492FF1FBB
:10597C00F492FF1FFC92FF1FFC92FF1F0493FF1F6A
:10598C000493FF1F0C93FF1F0C93FF1F1493FF1F17
:10599C001493FF1F1C93FF1F1C93FF1F2493FF1FC7
:1059AC002493FF1F2C93FF1F2C93FF1F3493FF1F77
:1059BC003493FF1F3C93FF1F3C93FF1F4493FF1F27
:1059CC004493FF1F4C93FF1F4C93FF1F5493FF1FD7
:1059DC005493FF1F5C93FF1F5C93FF1F6493FF1F87
:1059EC006493FF1F6C93FF1F6C93FF1F7493FF1F37
:1059FC007493FF1F7C93FF1F7C93FF1F8493FF1FE7
:105A0C008493FF1F8C93FF1F8C93FF1F9493FF1F96
:105A1C009493FF1F9C93FF1F9C93FF1FA493FF1F46
:105A2C00A493FF1FAC93FF1FAC93FF1FB493FF1FF6
:105A3C00B493FF1FBC93FF1FBC93FF1FC493FF1FA6
:105A4C00C493FF1FCC93FF1FCC93FF1FD493FF1F56
:105A5C00D493FF1FDC93FF1FDC93FF1FE493FF1F06
:105A6C00E493FF1FEC93FF1FEC93FF1FF493FF1FB6
:105A7C00F493FF1FFC93FF1FFC93FF1F0494FF1F65
:105A8C000494FF1F0C94FF1F0C94FF1F1494FF1F12
:105A9C001494FF1F1C94FF1F1C94FF1F2494FF1FC2
:105AAC002494FF1F2C94FF1F2C94FF1F3494FF1F72
:105ABC003494FF1F3C94FF1F3C94FF1F4494FF1F22
:105ACC004494FF1F4C94FF1F4C94FF1F5494FF1FD2
:105ADC005494FF1F5C94FF1F5C94FF1F6494FF1F82
:105AEC006494FF1F6C94FF1F6C94FF1F7494FF1F32
:105AFC007494FF1F7C94FF1F7C94FF1F8494FF1FE2
:105B0C008494FF1F8C94FF1F8C94FF1F9494FF1F91
:105B1C009494FF1F9C94FF1F9C94FF1FA494FF1F41
:105B2C00A494FF1FAC94FF1FAC94FF1FB494FF1FF1
:105B3C00B494FF1FBC94FF1FBC94FF1F0000020015
:045B4C00FFFFFFFF59
:00000001FF
